:1000000000800010813D0000B13D0000B33D0000C4
:10001000B53D0000B73D0000B93D00000000000004
:10002000000000000000000000000000F9010000D6
:10003000BD3D0000000000006302000099020000C6
:10004000C33D0000C33D0000C33D0000C33D0000B0
:10005000C33D0000C33D0000C33D0000C33D0000A0
:10006000C33D0000C33D0000C33D0000C33D000090
:10007000C33D0000C33D0000C33D0000C33D000080
:10008000C33D0000C33D0000C33D0000C33D000070
:10009000C33D0000C33D0000C33D0000C33D000060
:1000A000C33D0000C33D0000C33D0000C33D000050
:1000B000C33D0000C33D0000C33D0000C33D000040
:1000C000C33D0000C33D0000C33D000010B5054C1A
:1000D000237833B9044B13B10448AFF300800123F4
:1000E000237010BDD80A001000000000F80D0100B8
:1000F000084B10B51BB108490848AFF30080084809
:10010000036803B910BD074B002BFBD0BDE81040BE
:10011000184700BF00000000DC0A0010F80D0100C5
:10012000D40A001000000000154B002B08BF134B31
:100130009D46A3F5803A00218B460F461348144A8A
:10014000121A05F03FFB0F4B002B00D098470E4BC7
:10015000002B00D098470020002104000D000D481E
:10016000002802D00C4804F0A1FB05F05FF9200044
:10017000290003F059F904F0A5FB00BF00000800B6
:1001800000800010000000001B340000D80A00109E
:10019000382F0010AD480000D94C000080F30988CA
:1001A0007047EFF309807047684680F309883F483D
:1001B0000078C00714BF0220032080F31488704722
:1001C000DFF8ECC0EFF305831B0618BF6047EFF3C1
:1001D0001483DB0708BF604700DF7047DFF8D4C037
:1001E000EFF305831B0618BF6047EFF31483DB07AB
:1001F00008BF604700DF7047EFF30980816911F89D
:10020000021CF1B990E80F10E047EFF3098C8CE87D
:100210000700294B93E8060091420FD039B12CE931
:10022000F00FC1F82CC00CB400F026FB0CBC1A6017
:10023000D2F82CC0BCE8F00F8CF309886FF0020EE6
:10024000704710B51D4A1268914209D81C4C54F8E9
:10025000214090E80F10A047EFF3098C8CE80F00C5
:1002600010BD00F097FA144B93E80600914210D0AD
:10027000EFF3098C2CE9F00FC1F82CC00CB400F09E
:10028000FBFA0CBC1A60D2F82CC0BCE8F00F8CF35F
:1002900009886FF0020E704700F0D0FAFFF7E3BF55
:1002A00000F0CAFA00F0CAFAFFF7DDBF70FC0000E8
:1002B000F31800000D1900001025001000000000C8
:1002C000FCFFFFFF054B586002234370044B1B6883
:1002D0001BB11B690BB1806B1847704710250010CC
:1002E0000C25001008B5034800F0F0FABDE80840FE
:1002F000FFF7E8BF5825001070B5044618B9BDE8EF
:100300007040FFF7EFBF0B4EA2783068012583786D
:100310009A4208D900F0ECFA336820465D70BDE8D7
:100320007040FFF7CFBF65702146BDE870400248BE
:1003300000F0B4BA102500105825001038B50D464D
:10034000014680B14FF6FF739842074C02D02068F7
:1003500000F0D8FA236805485D7000F0B7FABDE8F0
:100360003840FFF7AFBF38BD1025001058250010EA
:10037000024B186800B1C078704700BF102500100C
:1003800010B598B9194B1B68997083F82410184858
:1003900043689B788B4224D9144C216800F07EFA84
:1003A000236801225A70FFF79DFF1AE0114B1B884A
:1003B000984218D8104B013853F820409CB10B4B91
:1003C000A1701B6884F824109C42E0D0204600F005
:1003D0000BFB6378012B04D1054800F077FAFFF797
:1003E0008BFF002010BDFF2010BD00BF10250010A6
:1003F000582500100AFD0000B02700102DE9F84331
:100400000D4611F0FF0F804622481646994608BF58
:10041000013501F06EFA044608B9002636E01E4B9D
:1004200006631B88280ADFF878E0A06200214E1CD2
:10043000B342F2D30EEB860252F8042C0F4631463B
:10044000002AF4D1EDB20123E670C4F81C902270AA
:100450006370A57084F824506260A260E26022613B
:100460002262A282E2822283628384F8252018B964
:100470000A4801F03EFA20632046414601F08EF919
:10048000074B204643F82740FFF736FF3046BDE8CC
:10049000F88300BF982B00100AFD0000A025001073
:1004A000B02700102DE9F0474B4D18B12B68DB78D1
:1004B00098423BD12C6800236370FFF772FEE06224
:1004C00000F0DAF92B6801271C6AF4B16368B3B154
:1004D000204600F0FBF90646002101F0ABF930465A
:1004E00000F09AFA777031463C4800F0D7F9E3689B
:1004F000326A6780A660E26034621C46E5E7E26823
:100500006380A360E3601446DFE72A683449D37848
:100510003448013B41F82340116B01F0F7F9296899
:1005200031480C6301F0F2F92C604CE02F4B1B8832
:1005300098424BD82A4B00F1FF3853F8286099466F
:10054000002E43D0304600F039FA304600F064FA0D
:10055000346A4FF0010A04B36368C3B1204600F067
:10056000B5F90746002101F065F9384600F054FA64
:1005700087F801A03946194800F090F9E3683A6A13
:10058000A4F802A0A760E2603C621C46E3E7E268D0
:100590006380A360E3601446DDE749F82840316BCF
:1005A000104801F0B3F9314634630F4801F0AEF959
:1005B0000A48296843689A788B789A4209D90123B6
:1005C0004B7000F06BF9FFF78DFE02E0FF20BDE8F5
:1005D000F0872046BDE8F087102500105825001050
:1005E000B0270010A0250010982B00100AFD000075
:1005F00038B52C4B2C491A8800231846934203D255
:1006000041F823000133F9E7284B3C221988284898
:1006100001F04AF9274B28481A88284B42F000423B
:10062000196801F041F9264B264C1988264B0822FF
:10063000186801F039F9FF230025E3701E480123F3
:100640006370A5622570A57084F824506560A5606C
:10065000E56025612562A582E5822583658384F8AE
:10066000255001F046F919492063204601F096F81B
:10067000174B04221A705D60164B20461A70DD601D
:100680001D619D82144B1C6002236370FFF71AFEEC
:10069000124A134B12781D705D70DA70BDE8384055
:1006A00001F0D0B80AFD0000B027001072FC000075
:1006B000982B00106CFC0000A0250010ECFC000042
:1006C000E8FC000018250010080B00108D19000030
:1006D00058250010702500101025001008FD00009E
:1006E000EC27001008B51E4B1A6842F47F021A600E
:1006F0001B681B0203F07F43DB43B3FA83F3194A01
:10070000DBB21268C3F10803C2F302221648934217
:1007100098BF531C6FF08071026801FA03F322F056
:100720007F4203F07F431343036000F06DF80F4BEB
:100730000028186012DB00F16040FF2200F56440E1
:1007400002701A68012153099B0003F1604302F013
:100750001F0203F5614301FA02F21A6008BD00BFEF
:1007600020ED00E00CED00E01CED00E05425001051
:10077000054B1B7823B9054B4FF080521A60704728
:10078000034B01221A707047F50A001004ED00E0D7
:10079000F40A001070B5194C194B2646186801234D
:1007A000437000F0A5F86578A378EBB106EBC503BC
:1007B000586802781AB9198901F09CF907E0012AF2
:1007C00003D1996800F05EFA01E000F0AFF9E37838
:1007D00001359D4208BF0025EFF3108372B6A37860
:1007E000013BA37062B6DFE7044B06485D7000F082
:1007F0006DF8BDE87040FFF765BD00BFEC27001045
:100800001025001058250010084B4FF0FF301A68D3
:10081000074B1A6000225A60072243F8042C054A4D
:10082000136843F07F431360704700BF04FD00006E
:1008300014E000E020ED00E07047000008B50B4B2D
:1008400018680123437000F053F801F007F8084AD4
:1008500013680133136000F07BF800F02DFF0548AA
:1008600000F034F8BDE80840FFF72CBD102500105B
:100870008825001058250010064B1A68136BD26AA1
:10088000934203D81A68044B9A4202D0012001F027
:100890007FB8704710250010A52E5AE230B50278B7
:1008A0008C78013A4368D2B22BB19D78A54202D32D
:1008B00018465B68F8E7022A4B60416003D803B131
:1008C0009960886030BD00238B6030BD436802783A
:1008D0005968013A022A41604FF0000204D809B178
:1008E00088605A609A6000E05A60184670470000BD
:1008F000034B5A684260002282605860704700BF14
:1009000058250010114B10B5DA680AB19A8A0CE02C
:1009100000248A1AC460D86003619A82848210BD60
:10092000002CF5D0A38A1A4423468A42DC68F7D308
:10093000C460D860C468036104B12061521A92B2E5
:100940008282998A8A1A9A8210BD00BF702500108F
:10095000F8B5174DEB68002B29D02E46AB8A154F02
:10096000013BAB82AA8A12BBF46804B3A3683BB113
:1009700061685960616809B18B6062600023A3609F
:1009800021460D48FFF78AFFA38AAB826378042BC8
:1009900001BFE38A3A689B18A38201236370E3686E
:1009A0000022EB600BB11E61E2602261DAE7F8BD64
:1009B00070250010882500105825001083682BB181
:1009C00042685A6042685AB193607047054B5A6852
:1009D000904202D142685A6070471346002AF6D10D
:1009E000704700BF5825001010B58468014624B92F
:1009F0004378012B0DD1074C03E023780BB9A46891
:100A0000FBE70846FFF7DAFF2046BDE81040FFF796
:100A100045BF10BD58250010036910B573B1C268F9
:100A2000DA60C2683AB19C8A818A21449982136152
:100A30000023C36000E09A820023036110BD000020
:100A400030B40E4BDD78EFF3108272B69A7895428F
:100A500007D901329A701A78541CA54208BF0024A5
:100A60001C7062B6954205D930BC03EBC2035860D6
:100A700099607047022030BC00F08ABFEC2700105C
:100A80000321FFF75BBC0223037000234360418016
:100A90007047000070B50446012665687DB12046A8
:100AA000FFF714FF0546002100F0C4FE2846FFF7BB
:100AB000B3FF6E7029460C48FFF7F0FEEDE70A48D9
:100AC00043686BB1094E9A7831688B789A4207D99E
:100AD000FFF7E4FE336801225A702846FFF70CFC4A
:100AE0000020207070BD00BF582500101025001098
:100AF000426810B562B1FFF7E9FE0446012100F03B
:100B000099FE2046FFF788FF2046FFF7F5FB02E03D
:100B1000428801324280002010BD08B50021FFF755
:100B20008FFFBDE80840FFF723BE0000426810B504
:100B30007AB1FFF7CBFE0446FFF76EFF012161702B
:100B4000204600F077FE2146BDE810400348FFF73D
:100B5000A5BE42880132428010BD00BF582500105A
:100B600001231039037089080023437083704360A8
:100B7000038143818381C1817047000070B58589FD
:100B800004461646002D34D043891A1D50F8222001
:100B900001330A60C2899BB29A42438104BF002399
:100BA00043814368EBB14378022B1AD1FFF78EFEE5
:100BB0000546002100F03EFE2389E9691A1D44F82C
:100BC00022100133E2899BB29A42238108BF00239D
:100BD000284608BF2381FFF71FFF2846FFF78CFB3D
:100BE00005E0EFF3108372B6013DA58162B60020E7
:100BF00070BD82B14268094B1AB11968FFF74EFE09
:100C000005E01B6843605A60986001234370082127
:100C10003046FFF793FB012070BD00BF1025001088
:100C2000C2898089101A704708B5FFF709FFBDE82F
:100C30000840FFF79DBD838910B50446EBB1438999
:100C4000043350F823300B604378022B04D1002189
:100C5000FFF7F6FEFFF78CFDEFF3108372B6A38962
:100C6000013BA38162B66389E28901339BB29A4258
:100C7000638104D10023638101E0184610BD042084
:100C800010BD0000426870B504460E46002A49D0E7
:100C90004578022D1CD0032D0AD0012D5CD1FFF721
:100CA00015FE04463246102100F0C7FD657034E0A1
:100CB000084600F01EFE054600284DD02046FFF7EE
:100CC00005FE0446294600F0B5FD0123637024E0CB
:100CD000FFF7FCFD0546002100F0ACFD2389E96922
:100CE0001A1D44F82210EFF3108272B6A289013265
:100CF000A28162B6E28901339BB29A42238104BF8A
:100D00000023238101236B702846FFF785FE2946C7
:100D1000BDE870401148FFF7C1BD2046FFF77CFEDB
:100D20002146F5E78089E189884210D223891D1D7B
:100D300044F82560EFF3108572B60130A08162B6E9
:100D400001339BB2994214BF2381228170BD0320DD
:100D5000BDE8704000F01CBE70BD00BF58250010FB
:100D600000B5DFF80CC000DFDFF808C000DFFEE7E9
:100D7000A10F0000B90F00000B4A30B51368002422
:100D800033B19D68A94203D31C46491B1B68F7E792
:100D90000360816013B19D68691A99600CB120608D
:100DA00030BD106030BD00BF902500100C4A0021FE
:100DB000136823B1834205D019461B68F9E74FF049
:100DC000FF307047036809B10B6000E013600368EF
:100DD0001BB1996882680A449A600020704700BF7E
:100DE00090250010C0B1431C11D00C4B984211D873
:100DF0000B4B4FF47A711B685A1E01FB0020B0FBAD
:100E0000F3F34FF6FE70834206D898B270474FF660
:100E1000FF7070474FF6FE70704700BF00093D003D
:100E200068FC000038B1830704D10378002B18BF99
:100E3000002070470020704738B50E4D2878B0B9B3
:100E40000D4C236893F82410FFF79AFA2368DA7898
:100E5000FF2A03D1DA6A203282F309886168064AE0
:100E600009B982E80A00FFF73DFC01232B7000203E
:100E700038BD00BF8D25001010250010014B1878DB
:100E8000704700BF8D25001010B5EFF305841CB925
:100E9000EFF31484E40702D4034B187810BDDFF895
:100EA0000CC000DF10BD00BF8D2500107D0E0000BE
:100EB00010B588B0EFF30583002B2FD1FFF7E4FFC7
:100EC00028B9194C246814B1646804B1A047EFF341
:100ED000148404F00304022C0CD0032C16D0012C33
:100EE0001ED008AC84F30988104C2478E40705D59B
:100EF000022404E00D4C2478E4070BD4032484F38B
:100F00001488BFF34F8FBFF36F8F03E0074C247833
:100F1000E40705D4DFF818C000DF02E0822000E01B
:100F2000FF2008B010BD00BF0C25001070FC0000B1
:100F3000390E000070B50B461646024608B900206F
:100F400070BD00680028FAD0B2F90440E51CADB2CB
:100F5000062DF4D8D5680DB1126900E02A46211D8E
:100F600041EA0521FFF74AFA0028E8D0094B013889
:100F700053F82040084AE36A5A63084B1B6833B1B0
:100F80009B6823B13146E0789847A06300E0A663F0
:100F9000204670BDB0270010610D00000C25001028
:100FA00008B5FFF7E5F918B1024B013853F82000F6
:100FB00008BD00BFB027001010B5FFF733FF04468F
:100FC00070B1084B1B681BB1DB680BB1806B984795
:100FD000E078FFF767FAFF280CBF8120002010BDE2
:100FE000802010BD0C250010F0B506460D461446B5
:100FF000EFF305878FB9EFF31487FF0706D4084F87
:101000003F781FB9BDE8F040FFF794BF304629464E
:101010002246DFF810C000DFF0BD0020F0BD00BFA9
:101020008D250010350F00000022FFF7DDBF000006
:1010300010B5EFF305841CB9DFF808C000DF10BD60
:10104000822010BDB90F000008B528B1FFF7CAFE15
:10105000FFF716FD402008BD08BD000010B5EFF3F6
:1010600005841CB9DFF808C000DF10BD822010BD68
:101070004910000010B5A8B1036883B1446864B199
:1010800001290ED8084B1B684BB123794BB923605B
:1010900001232371617122616061204610BD1846F1
:1010A00010BD002010BD00BF282F0010F8B5830729
:1010B000044624D118B321B3144B4FF47A701A6844
:1010C000002312F1FF3643F1FF37E0FB01673046A2
:1010D00039460DF017FE23790546012B06D0022B69
:1010E00011D12046FFF762FE68B902E002232371A6
:1010F000E06020462946FFF73FFE0020F8BD802033
:10110000F8BD8620F8BD8120F8BD00BF68FC000056
:10111000820708B50CD158B10279022A01D081208A
:1011200008BD01220271FFF741FE0028F7D108BD7A
:10113000802008BD830710B504460AD148B1037961
:10114000012B03D0022B06D1FFF730FE00202071C7
:1011500010BD802010BD812010BD830704D128B1AF
:10116000436901691B6803E0002300E00346194658
:1011700018467047F0B506460D461446EFF305874E
:101180008FB9EFF31487FF0706D4084F3F781FB9D4
:10119000BDE8F040FFF76EBF304629462246DFF833
:1011A00010C000DFF0BD0020F0BD00BF8D25001095
:1011B0007510000010B5EFF305841CB9DFF808C006
:1011C00000DF10BD822010BDAD10000010B5EFF3A0
:1011D00005841CB9DFF808C000DF10BD822010BDF7
:1011E0001111000010B5EFF305841CB9DFF808C039
:1011F00000DF10BD822010BD3511000010B504467F
:101200000846DFF80CC000DF84E80300204610BD6C
:101210005B11000010B50A46FFF704FE48B10B0C45
:101220001B0433B9048BC17890B200F019FC20463E
:1012300010BD4FF0004010BD10B50A46FFF7F2FD9B
:1012400048B10B0C1B0433B9048BC17890B200F089
:1012500033FC204610BD4FF0004010BD030C1B04B2
:101260002DE9F14F80460C465BBB0846B8F1000FF4
:101270000AD0FFF7B7FD012201461FFA88F000F0FF
:10128000CFFB02280FD111E0FFF7ACFD424601462B
:101290004FF6FF7000F0C4FB022804D10E4B1B6810
:1012A000B3F81A8002E01CB9A04604E0082402E06A
:1012B0004FF0000840240020014645460E460F46E8
:1012C00003E000252E462F46862420462946324636
:1012D0003B4601B0BDE8F08F1025001010B50A465E
:1012E000FFF7A0FD48B10B0C1B0433B9048BC17888
:1012F00090B200F0EDFB204610BD4FF0004010BD55
:1013000010B5EFF305841CB1BDE81040FFF7E6BF50
:10131000DFF804C000DF10BD1512000010B5EFF3B8
:1013200005841CB9DFF80CC000DF10BD4FF0004091
:1013300010BD00003912000030B5044608461146C1
:10134000EFF3058515B18223236004E0DFF80CC0BC
:1013500000DF84E80700204630BD00005D12000079
:1013600010B548B1046824B1237823B9204600F0B1
:10137000EBFB204610BD002010BD70B510F003043B
:1013800005460E4611D180B10378032B0DD10846D6
:10139000FFF728FD0146284600F0A2FC012806D1EF
:1013A000002E14BFC120812070BD802070BD20465A
:1013B00070BD820708B50AD148B10378032B06D166
:1013C00000F01EFCFF280CBF8120002008BD8020FB
:1013D00008BD10B510F0030407D130B10378032B1A
:1013E00003D100F0B9FB204610BD802010BD0000E5
:1013F00030B50446EFF305857DB9EFF31485ED07AD
:1014000006D4074D2D781DB9BDE83040FFF7A8BFC1
:101410002046DFF810C000DF30BD002030BD00BF27
:101420008D2500106113000010B5EFF305841CB981
:10143000DFF808C000DF10BD822010BD7B13000064
:1014400010B5EFF305841CB9DFF808C000DF10BD4C
:10145000822010BDB313000010B5EFF305841CB952
:10146000DFF808C000DF10BD822010BDD3130000DC
:1014700010B568B1046844B1207840B9B1F5803F37
:1014800006DA89B22046FFF7FEFA204610BD00209A
:1014900010BD10B510F003040CD158B10278022A27
:1014A00008D14FF6FF7342889A4205D0FFF720FB20
:1014B000204610BD802010BD812010BD10B510F059
:1014C000030407D130B10378022B03D1FFF7E2FA0E
:1014D000204610BD802010BD10B510F003040CD1C3
:1014E00058B10278022A08D14FF6FF7342889A4217
:1014F00005D0FFF712FB204610BD802010BD8120D3
:1015000010BD000070B505460C46EFF3058686B9A0
:10151000EFF31486F60706D4074E36781EB9BDE8F9
:101520007040FFF7A5BF28462146DFF810C000DF56
:1015300070BD002070BD00BF8D250010711400002B
:1015400010B5EFF305841CB1BDE81040FFF7C4BF30
:10155000DFF804C000DF10BD9314000010B5EFF3F6
:1015600005841CB9DFF808C000DF10BD822010BD63
:10157000BD14000010B5044660B1016859B140685F
:1015800060B103784BB90431890089B2FFF7E8FAFA
:10159000606810BD10BD084610BD002010BD0000E1
:1015A00038B50F4C23780BB9FFF722F80D4B25788F
:1015B0001B68FF229A7065B929460B48FFF7DAFFCE
:1015C0000A4B2A46186029460948FFF7B3FC094B25
:1015D000186001232370084B0020187038BD00BF2D
:1015E0008C25001010250010FCFC00007028001055
:1015F00078FC0000282F00108D25001010B5EFF3A7
:1016000005845CB9EFF31484E40703D4BDE810400B
:10161000FFF7C6BFDFF808C000DF10BD822010BD95
:10162000A11500002DE9F04F0C4685B08046E8B1C9
:101630000378012B1FD10846FFF7D4FB02A902460D
:101640004046FFF79BFA012806D10020002C0246F5
:10165000034618BF402003E0002002460346102046
:10166000029904460D4616461F4608E080240546AA
:101670000646074603E000252E462F4680242046D6
:10168000294632463B4605B0BDE8F08F70B50E46A0
:101690001446054660B15AB90378012B08D1FFF70B
:1016A000BFFA38B128463146FFF7BEFA204670BD72
:1016B000802070BD812070BDF8B5114B1C681E469E
:1016C000E4B1A3680F4F013BA360A268B2B92568DB
:1016D000214638683560FFF7D9FF10B1042000F0CB
:1016E00057F96379012B04D1E1682046FFF744FBE9
:1016F00001E0012323710DB12C46E6E7F8BD00BFE0
:1017000090250010702800107FB504461646084644
:1017100001B112B18023236010E00B78012BF9D1C5
:1017200002A9FFF788FA042808BF102301AD14BFEF
:101730000196019395E8070084E80700204604B06D
:1017400070BD0000F8B50446EFF3058717B1FFF749
:10175000DBFF06E008461146DFF80CC000DF84E836
:1017600007002046F8BD0000251600007FB50A4C92
:101770004FF0FF32216803A8FFF7E4FF039B102B13
:10178000F6D1049901A8FFF739FD019B002BEFD09A
:1017900002989847EBE700BF70280010836AF0B505
:1017A0009B0808BF214B046B08BF1B884FF0807655
:1017B00008BF9B0804EB8302550748BF043A02E9BF
:1017C0004200A2F14005A2F14406A2F10C074FF03D
:1017D000000E46F804EFBE42FBD1C66942F8206C09
:1017E00041631249C5620968C9001CD5112B1AD979
:1017F000103B6FF007015B084B43A3F138010A442B
:1018000029464FF0CC30914204D041F8040C41F805
:10181000080DF8E708332B441A1F94423CBF4FF0E1
:10182000CC3243F8042C024B2360F0BD6CFC00006A
:10183000A52E5AE2C36A19627047C36A19625A62D6
:1018400070470000034B00221A60034A1268DA80D6
:10185000704700BF94250010F4FC000008B50F4B42
:101860000F485A680F4B1968914205D01A60DA8800
:10187000511E02680A449A809A8803889A420BD1C2
:10188000084B002205481A60FFF720F8BDE8084021
:1018900001460248FFF702B808BD00BF58250010F6
:1018A0008825001094250010002ABBBF22F00042BA
:1018B0000732033222F00702A8BF22F0030210B55C
:1018C000B4BF10230C2392B1D4188C420FD801441A
:1018D000034454424160036082602144981881426D
:1018E00002D300510346F9E70020186010BD012023
:1018F00010BDEFF3108372B6026803F001030AB162
:101900001168016003B962B6104670478142034610
:101910000DD3426891420AD2EFF3108072B61A6872
:1019200010F001000A60196003D162B6704701200F
:10193000704700207047000008B50D48FFF758FDBC
:101940000C4B18600C48FFF753FD0C4B18600C480B
:10195000FFF74EFD0B4B18600B4802F0A7FF03F09A
:1019600065FDBDE808400021084601F05DBD00BFEF
:10197000F8FC000074280010F0FC0000300B001090
:1019800074FC00002C0B0010D94C000000F0DAB9F8
:1019900010B50446FFF704FB2146BDE8104002469F
:1019A000014802F0AFBE00BF8CFC0000F0B4094A51
:1019B000094FC2F1805303F5F843084D084C09491B
:1019C0009E184FF480603A602E6023600860F0BC7F
:1019D000704700BF382F0010C4230010581B0010A0
:1019E000C0220010341B0010FFF708FEFFF7DEFFD7
:1019F00003480021FFF718FBFFF75AFAFEE7000043
:101A0000CC000010024B4FF0FF311868FFF70CBDFF
:101A1000300B0010014B1868FFF712BD300B00109F
:101A200038B50E4C03460846216822B10A8B33EACA
:101A300002050AD104E00A8B13EA020507D04D83A0
:101A400022EA03030B83022038BD062100E00521B2
:101A500022685383FEF772FC012038BD1025001068
:101A6000144B013910B553F8214014B3238B62781D
:101A70001843062A2083638B03D133EA000218D16E
:101A800005E0052A15D110EA030212D0628320EA8C
:101A9000030020832046FEF7BFFF0123204663702A
:101AA000628B0821FFF7C9FE2046BDE81040FEF713
:101AB00023BC10BDB0270010044B013953F821306E
:101AC0001BB11A8B22EA000018837047B027001060
:101AD00008B5074B013953F821303BB10146184690
:101AE000FEF7AEFFBDE80840FEF742BE08BD00BFEE
:101AF000B027001010B5038B42781943062A04461C
:101B00000183438B03D133EA010219D105E0052A91
:101B100016D111EA030213D0428321EA0301218383
:101B20002046FEF779FF012320466370628B08216F
:101B3000FFF783FE2146BDE810400248FEF7AEBE27
:101B400010BD00BF582500100323037000234380FD
:101B500043608360C3607047438870B504461BB31D
:101B60008068036A9C4203D1E368036206E013467F
:101B700023B1DA689442FAD1E268DA6090F824304E
:101B8000026A3AB1516819B189788B4238BF0B4665
:101B9000D268F6E782789A4206D08370164B1B68AB
:101BA000984201D0FEF720FF012665687DB12046EE
:101BB000FEF78CFE05460021FFF73CFE2846FEF7A7
:101BC0002BFF6E7029460D48FEF768FEEDE70B48C7
:101BD00043686BB1084E9A7831688B789A4207D97E
:101BE000FEF75CFE336801225A702846FEF784FB3C
:101BF0000020207070BD00BF102500105825001077
:101C00002DE9F84343880546002B61D0324F8168A7
:101C10003A6891425CD1013B9BB2438013B10020F2
:101C2000BDE8F8830B6A984203D1C3680B6206E0F3
:101C3000134623B1DA689542FAD1EA68DA6091F87E
:101C400024300C6A3CB162681AB19278934238BF72
:101C50001346E468F6E78B706A68DFF8808042B369
:101C60002846FEF733FE06462146FFF7E3FD3046E1
:101C7000FEF7D2FE336A4FF00109EB603968D8F8FD
:101C80000430A5F80290AE6035628A789B789A425B
:101C900001D3304619E04046FEF700FE314640468B
:101CA000FEF7FCFD0C4B1B6883F8019086F8019051
:101CB0000AE0D8F8042092789A42B0D94046FEF75C
:101CC000EDFD3B6801225A702046FEF715FBA6E7A2
:101CD000FF20BDE8F88300BF102500105825001034
:101CE000438870B504460E46144D2BB92A68116A14
:101CF0008260C160106203E0826829688A4203D171
:101D000001336380002070BDB6B18B789178994221
:101D100003D293708068FEF767FE626822B129687B
:101D20002046FEF7BBFD03E02B6863605A609C60B1
:101D300009213046FEF702FB012070BD102500107E
:101D40007047000008B5024C23689847FCE700BFC5
:101D5000E0000010704710B5044601F0CBFB2046B0
:101D600010BD38B504460D461822002103F02AFDA7
:101D70002046294602F0E5FB204638BD70B50546F1
:101D8000094B064645F80C3B5DB100F12C04AC4212
:101D900007D0103CE368002BF9D09B682046984799
:101DA000F5E7304670BD00BFD007010010B504460E
:101DB0000A4B483003F1200240F8483C5C3340F8BD
:101DC000182C40F8143C00F04DFD04F1300002F0F6
:101DD00019FB2046FFF7D2FF204610BD6007010027
:101DE000A0F13000E2E7A0F13400DFE710B50446CF
:101DF000FFF7C4FF204601F07DFB204610BD000028
:101E000070B54FF0FF310646084800F025FD084D3B
:101E1000002428193146583400F006FCB4F55C7FE4
:101E2000F7D1BDE87040014800F019BDB01C0010AA
:101E3000801E0010092810B5044611D84FF0FF315C
:101E4000084800F009FD084B582000FB04304FF013
:101E5000FF3100F0ECFBBDE81040024800F0FFBC91
:101E600010BD00BFB01C0010801E001070B50446ED
:101E700054F8043B05467BB90C4E4FF0FF313068F7
:101E8000FFF7D2FA2B6823B914B1204600F0CCFC3E
:101E90002C603068FFF7D4FA2B68A34204D0592293
:101EA0000349044802F0CCFB286870BD7428001078
:101EB00024FD000046FD000008B50448FFF7D6FFEA
:101EC000BDE808404FF0FF3100F0C6BCB42400105C
:101ED00008B50348FFF7CAFFBDE8084000F0BFBCE3
:101EE000B424001037B50E4B02AC44F8083D204630
:101EF000FFF7E2FF0B4901A800F050FE2046FFF774
:101F0000E7FF2046FFF7D8FF01A800F08DFE054649
:101F10002046FFF7DDFF044B1D8003B030BD00BF3E
:101F200014FD00003FC009205C1B001010B50446E2
:101F3000FFF73CFF204601F0DDFA204610BDA0F17E
:101F40003000F3E7A0F13400F0E7000073B5314D45
:101F50004FF41653304C0093304A00233049284642
:101F600002F07AF928462F4D22462F4901F09CFABB
:101F70002E4E2F49284602F0DFF828462D4D2246E6
:101F8000314601F091FA2C49284602F0D5F8224654
:101F90003146284601F088FA28492948FFF7E1FE32
:101FA000284D29492948FFF7DCFE02F063FB284948
:101FB000284801F005F902F087FB27492846FFF77A
:101FC000D0FE264905F11800FFF7CBFE244905F1A4
:101FD0003000FFF7C6FE234905F14800224DFFF708
:101FE000C0FE224802F05BFA214E284600F01CFC9D
:101FF0002846204D2246314601F056FA284600F088
:1020000013FC22463146284602B0BDE8704001F07C
:102010004BBA00BFD81B0010C800001003C0092035
:1020200002C00920E01C0010AD1D0000DD400000D2
:1020300009C00920381C001008C0092007C0092069
:10204000901C0010781B001006C00920C81C00104E
:1020500045C00920A81C001032C0092034C0092046
:1020600035C0092037C00920601B0010801C0010FB
:1020700065280000B01C00100368184708B10B6801
:10208000036070477047034610B103C983E803003B
:1020900070477047036840681847000038B5036808
:1020A000044601330D4604D124220549054802F0B7
:1020B000C7FA63680DB1E26800E02269136038BDB9
:1020C00074FD0000B3FD000008B504480021FFF7CF
:1020D000E5FFBDE80840024800F055BBC81C0010F1
:1020E0005C1D001008B504480021FFF7D7FFBDE8CC
:1020F0000840024800F047BB901C0010281D00104B
:10210000032870B5044605D902461049104802F06C
:102110008BF9FEE7182242430E4BD618D2581D46C3
:10212000013204D12C220C490C4802F089FA182300
:1021300003FB0454636930461A686368BDE8704065
:102140001A420CBF01210021FFF7A8BFCBFD000000
:10215000081C0010781B001074FD0000B3FD000087
:1021600010B51020074CFFF74BFE0120FFF7C8FF0A
:102170000549204602F058F92046BDE810400349C1
:1021800002F052B9081C0010DBFD000073030100CF
:1021900010B50820074CFFF733FE0020FFF7B0FF13
:1021A0000549204602F040F92046BDE810400349A9
:1021B00002F03AB9081C0010E9FD000073030100A9
:1021C00008B501210548FFF769FF0021044800F028
:1021D000D7FABDE808400320FFF792BFC81C0010E3
:1021E0005C1D001008B501210548FFF757FF0021CD
:1021F000044800F0C5FABDE808400220FFF780BFA0
:10220000901C0010281D0010C36810B504460BB1C7
:102210009B689847204610BD1FB5144B144C694667
:1022200014480093039401F0B7FF6846FFF7ECFFF2
:10223000114B124869460093039401F0ADFF6846C4
:10224000FFF7E2FF4FF0FF320021684600F0F2F99D
:10225000019B5A0602D5FFF7B3FF03E09B0601D5A9
:10226000FFF7C0FF0720FFF7E5FDEBE76121000066
:1022700068FD0000381C001091210000E01C0010D7
:102280002DE9FF41174D0024174BDFF87080694698
:10229000EC6001222846154F154E8DE81800CDF848
:1022A0000C8000F07DFA6846FFF7AEFF3A463146F3
:1022B0002846104D01F0F8F80F4B694601222846D8
:1022C000EC608DE81800CDF80C8000F069FA6846E3
:1022D000FFF79AFF3A463146284601F0E5F804B088
:1022E000BDE8F0815C1D0010C9200000C80000108E
:1022F0008D270000281D0010E52000005CFD000077
:1023000070B50C4C0C4E204600F012FB002211461A
:1023100020460A4D00F0C8FA32680949204602F00A
:1023200083F82A680749204602F07EF800233360CC
:102330002B6070BDC81D00107C1E0010901D001089
:10234000F7FD0000FEFD000030B5114C114D0023DB
:1023500023602B60104B64211B7885B059430F48D4
:1023600000F00EFA002101A84FF0FF3200F062F9F0
:10237000029A0620110742BF236801332360D30667
:1023800042BF2B6801332B60FFF754FDEAE700BF23
:102390007C1E0010901D0010E4000010941D001021
:1023A00010B5154B88B00293013B00240193023312
:1023B0000093124A013312490394124800F0C8FAFC
:1023C000114A12490F4801F06FF8114B114804935C
:1023D000114BC460012204A90793059400F0E0F9B1
:1023E000079B13B19B6804A89847074A0B49094803
:1023F00001F05AF808B010BD10C0092001C0092032
:1024000000C00920C81D0010C800001021240000D1
:1024100001230000941D00105CFD00008D270000CA
:1024200010B50446064B483040F8483C3C3340F871
:10243000443C01F071FD204601F0E4FF204610BD50
:10244000F0FE0000A0F10400EAE700BF10B504466A
:10245000FFF7E6FF204601F04DF8204610BDA0F141
:102460000400F3E738B5074D00242B19D3F81833CF
:1024700004F546701B682844583C984714F55C7F67
:10248000F3D138BD801E0010F0B51B4C85B0FFF7AE
:1024900029FD1A4D1A4801F0E4FF1A49204601F0BF
:1024A000C3FF194E2946204601F0BEFF174F184BB7
:1024B000694606F504700093039700F0F3F8684648
:1024C000FFF7A2FE134B694606F51A7000930397B7
:1024D00000F0E8F86846FFF797FE0F49204601F044
:1024E000A3FF2946204601F09FFF4FF0FF3000F088
:1024F000A7F8002005B0F0BD081C00107303010010
:10250000801C001004FE0000801E001068FD00000A
:10251000492300001922000018FE0000F8B51B4CEA
:102520001B4F002631462760266104F1300000F081
:102530005DF904F1400000F077F9204633464FF48E
:102540000062314600F04CF804F1880504F5687427
:1025500045F8307C45F8206C0021284600F046F90B
:1025600005F1100000F060F90023A5F130004FF4F0
:1025700000621946583500F033F8A542E8D1BDE8AD
:10258000F840044A0449002000F08EBF801E00106D
:10259000B8FE0000C80000106524000038B50369CB
:1025A0000446051D2BB940F28F220B490B4802F05F
:1025B00047F8236928461B68984704F140004FF00C
:1025C000FF3100F049F90023636104F13000BDE8F8
:1025D000384000F01EB900BF3AFE000056FE000071
:1025E00010B500244461B3FA83F4640980F82C40E8
:1025F00081834262836210BD70B5044600F14005DC
:102600004FF0FF31284600F027F96069FEF710FD12
:1026100006460023636104F1300000F0FAF8284612
:1026200000F01DF9304670BD4069FEF769BE406993
:10263000FEF774BE10B50446FEF77EFE204610BDC0
:10264000FEF70CBD10B504460B4B0360FFF7D4FF3B
:1026500094F82C301BB1A06A08B100F04FFF04F1D0
:10266000400000F0FFF804F1300000F0D5F8201D24
:10267000FFF7CAFD204610BDB8FE000010B50446A5
:10268000FFF7E0FF204600F035FF204610BD38B5CB
:10269000CB6804460D460BB15B689847EB68204653
:1026A000E36038BDF8B5044600F140050F46284602
:1026B0004FF0FF3100F0D0F8636923B1284600F0F5
:1026C000CEF88020F8BD224BA361A36A13B100238A
:1026D000204911E0606A8008B0F1FE5F94BF80007D
:1026E0004FF0FF3000F0FAFEA0620028EFD128463C
:1026F00000F0B5F88520F8BD626AB3EB920F04D202
:10270000A26A42F823100133F6E7261DBE4207D025
:102710003046FFF779FD1EB139463046FFF7B7FF67
:10272000214604F11800FEF77FFC606158B994F867
:102730002C301BB1A06A08B100F0E0FE284600F082
:102740008EF88120F8BD284600F089F80020F8BDF9
:102750009D250000A52E5AE2C36810B504462BB98A
:1027600040F28F220449054801F06AFFE3682046E1
:10277000BDE810401B6818473AFE000056FE0000F6
:102780000069FEF717BD0069FEF720BD10B50446CD
:102790000069FEF727FD2046FFF736FD204610BDF5
:1027A000F8B504460D46104B00F11C064361174670
:1027B00000211822304603F005F8AC42A6610BD088
:1027C0002046FFF721FD3CB1EB681BB15B68294651
:1027D00020469847EB68E3602246394604F114002E
:1027E000FEF7C8FC2061F8BD5927000070B504460B
:1027F00000F108050E4608220021284602F0E2FFFB
:102800002046314640F8045FFEF77CFE20602046FB
:1028100070BD0068FEF794BE10B504460068FEF770
:102820009DFE204610BD000038B5044600F10805A5
:1028300010220021284602F0C5FF204640F8045F20
:10284000FEF7D6FD206010B9024801F05BFF20467C
:1028500038BD00BFC0FE00000068FEF7E5BD00689F
:10286000FEF7EEBD10B504460068FEF7F5FD204604
:1028700010BD704770474FF0FF30704738B50368A0
:10288000044601330D4604D124220549054801F0D0
:10289000D7FE63680DB1E26800E02269136038BDBD
:1028A00074FD0000B3FD0000C0F8AC10C0F8B0200B
:1028B00070470000F8B504460F46154D00F1480674
:1028C00009113046303401F0BBFB284601F046FFC9
:1028D00000212046FFF7D2FF284601F03FFF2046A7
:1028E0000121FFF7CBFF3946304601F0A9FB28460E
:1028F00001F034FF00212046FFF7C0FF284601F019
:102900002DFF2046BDE8F8400121FFF7B7BF00BF0B
:10291000ACC5273838B504460D4618300021FFF7FE
:10292000ADFF29462046BDE83840FFF7C3BF000091
:1029300010B504460121FFF7EDFF044801F00EFF3A
:102940000023C4F8AC30C4F8B03010BD45F5D63A19
:102950002DE9F04104460E4690461F468EB00021F8
:1029600001F02EFD314B04F1180523603C33636008
:1029700018220021284602F025FF3146284604F19E
:10298000300601F0DEFD18220021304602F01AFF69
:102990004146304601F0D5FD4FF0FF330C930B93C9
:1029A0000A9309930893079306930593049303935B
:1029B00002930193169B149A00933946159B04F1D8
:1029C000480001F0C5FA9DF85C30012184F8A83078
:1029D0003046FFF753FF28460021FFF74FFF14480A
:1029E00001F0BCFE032503212046FFF763FF1148D9
:1029F00001F0B4FE013DF6D102212046FFF75AFF57
:102A00000D4801F0ABFE20462821FFF783FF20464A
:102A10000C21FFF77FFF06212046FFF77BFF2046B2
:102A2000FFF786FF20460EB0BDE8F081F0FE000003
:102A30008FC2753C45F5D63AACC5273838B5044643
:102A40000D4618300121FFF719FF29462046BDE841
:102A50003840FFF72FBF90F8A830012B10D0032B80
:102A600014D1032A0CD8DFE802F00E02050801F1A8
:102A7000C000704701F19400704701F1D400704725
:102A8000282000FB021101F180007047901C01EB2F
:102A90008010704738B504461D46FFF7DCFF01463D
:102AA0002046FFF737FF29462046BDE83840FFF7AC
:102AB000C5BF90F8A830023B012B8CBF102014201A
:102AC000704790F8A830032B0CBF042002207047F9
:102AD0000A2938B504460D460FD1D0F8B02000239E
:102AE0000132C0F8AC30C0F8B020FFF7EAFF8242F4
:102AF0001EDB0023C4F8B0301AE00B46D0F8B0203B
:102B0000D0F8AC10FFF7C6FFD4F8AC202046013255
:102B1000C4F8AC20FFF7CDFF824209DBD4F8B02027
:102B200000230132C4F8AC30C4F8B0202046DCE702
:102B3000284638BD0C4B00781A68012122F0FF02AC
:102B40001A601A6881400A431A601A6842F080725B
:102B50001A605868044A0028FBDA1368C0F30B10A7
:102B600023F08073136070470040034070B5064641
:102B7000FFF7E0FF04463046FFF7DCFF054630462E
:102B8000FFF7D8FFAC4282BF23462C461D46A84221
:102B900028BF2846A04238BF204670BD38B505463C
:102BA0000C460846184901F009FDC0B2FF282870FC
:102BB00004D1164816492F2201F042FD154B20463C
:102BC000D3F8C420104942F48052C3F8C420D3F88B
:102BD000A82122F04072C3F8A821D3F8A82142F01E
:102BE0008072C3F8A8210C4B1A680C4B13440C4A92
:102BF00093FBF2F3013B1B020A4A43F400131360F8
:102C0000BDE8384001F0A0BCA8FF000034FF000080
:102C10004CFF000000C00F40080100103F5DC600DF
:102C2000405DC6000040034008B5FFF79FFFC0F3BA
:102C3000032343EA001080B208BD000010B50C4C1D
:102C4000A268A4681346B4F1805F0CD2131F094A2E
:102C500053F8044F42F8044F074CA242F8D1044AFB
:102C60004FF080539360103043F8201010BD00BF28
:102C700000ED00E0FCFFFF0FC0000010431C10B58A
:102C8000044604D106480749152201F0D9FC204624
:102C9000002100F0EDF904F01F040120A04010BD58
:102CA000B8FD00001400010038B505464B1C0C4669
:102CB00029600FD00846FFF7E1FF24F01F0404F15C
:102CC0001803EB6004F11C032B6104F1140368602A
:102CD0006B61AC6038BD006800F0F2B938B50368CC
:102CE000044601330D4604D10A480B492C2201F059
:102CF000A7FC15B1012D06D038BDA2686168136824
:102D000023EA010303E0A268636811680B431360C0
:102D100038BD00BFB3FD0000140001002DE9F843E9
:102D2000344CD4F80490D4F80880676AA66AB9F1E4
:102D3000000F24D0B9FA89F52F4BC5F11F05EDB26C
:102D400053F8250018B12D4B01211B68984701232A
:102D5000AB40E360C3EB0909E9E7B8FA88F5264B15
:102D6000C5F11F05EDB253F8250018B1234B022120
:102D70001B6898470123AB40E360C3EB0808B8F138
:102D8000000FEAD10AE0B7FA87F5C5F11F05EDB2E9
:102D90000F2D06D90123AB40E362FF1A002FF2D1B9
:102DA00016E0154B05F1200253F822000028F1D05F
:102DB000124B01211B689847ECE7B6FA86F5C5F17E
:102DC0001F05EDB20F2D06D90123AB40E362F61AC1
:102DD000002EF2D10BE0084B05F1200253F822003F
:102DE0000028F1D0054B02211B689847ECE7BDE8AD
:102DF000F88300BF80800240F4210010F021001011
:102E000070B51E464B1C044623D0134B1A6021F0AC
:102E10001F03124A036001F01F0321F05F0191427A
:102E20004360154602D00E4801F06CFC23686268CE
:102E3000AB420C4918BF203241F82260A260152035
:102E40000949FFF7FBFE094B4FF400121A600020FE
:102E500070BD084670BD00BFF021001000C0092001
:102E60006B000100F42100101D2D000000E100E0C6
:102E70008268024B002143F822107047F4210010B1
:102E800030B503682D4DAB4203D02D4CA34208D082
:102E90000FE044680123A3402A4C0129E36030D1AC
:102EA0000EE044680123A340264C0129E36236D199
:102EB00014E0012920D1AB4202D0A3420ED030BD94
:102EC000012340681F491AB10A698340134303E094
:102ED0000A69834022EA03030B6130BD0123406885
:102EE00018491AB10A6B8340134303E00A6B83400D
:102EF00022EA03030B6330BDAB4202D0A3421BD1D5
:102F00000DE0012340680F491AB14A698340134319
:102F100003E04A69834022EA03034B6130BD012389
:102F2000406808491AB14A6B8340134303E04A6B77
:102F3000834022EA03034B6330BD00BF00C0092079
:102F400040C009208080024038B503680446013340
:102F50000D4604D105480649242201F071FB63683F
:102F60000DB1E26800E02269136038BDB3FD0000D6
:102F70009800010000B599B001F07CFB68461B4940
:102F800001F0DFFA06A81A4901F0DBFA0CA819498A
:102F900001F0D7FA12A8184901F0D3FA68460121C6
:102FA000FFF7D2FF06A80021FFF7CEFF0CA80021F3
:102FB000FFF7CAFF12A80121FFF7C6FF962001F014
:102FC000D9FB68460021FFF7BFFF06A80121FFF7E4
:102FD000BBFF0CA80121FFF7B7FF12A80021FFF7E4
:102FE000B3FF962001F0C6FBD8E700BF32C009202E
:102FF00034C0092035C0092037C0092030B5054646
:103000000C46A1B001F036FB29466846224606F080
:103010002BFF051E03DC01F057FB21B030BD094B2F
:103020001B6823B908480949094A00F0F3FD002448
:103030001DF804100448013400F050FDAC42F7D1F3
:10304000E9E700BFC82300102C2F001002C00920A0
:1030500003C009200FB407B504A951F8040B01916E
:10306000FFF7CCFF03B05DF804EB04B0704700003D
:1030700038B5431C04460D4604D10F480F491522AC
:1030800001F0DEFA04F16040A0F51C2003099B006A
:1030900003F1804303F5303300F00F02520018684B
:1030A0000321914020EA010119601868954045EA22
:1030B0000001196038BD00BFB8FD00000501010026
:1030C00038B5431C05460C4604D11848184920223F
:1030D00001F0B6FA05F16040A0F51C2043099B0001
:1030E00003F1804303F530339D6EC4F3800200F09A
:1030F0001F0102FA01F125EA01059D669D6E294333
:10310000996692B903099B0003F1804303F53033BC
:1031100000F00F025200186C0321914020EA0101D7
:103120001964196C94400C431C6438BDB8FD000050
:103130000501010070B506460D46084600210BF05A
:1031400073FD40B928464FF07E510BF08BFD18B14E
:103150004FF07E5500E000250A4CA0690BF06EFB95
:1031600029460BF0C3FB0BF0ADFDA3693179984202
:10317000336808BF01301860226D01238B40134370
:10318000236570BD008001400B4B02221B6810B507
:1031900059430A4B5A6099619A6932B100680268D2
:1031A0009C695143B1FBF4F101601A6D42F00102D8
:1031B0001A6509225A6010BDB42200100080014037
:1031C00070B505460E4608461F4901F0F7F9C4B22E
:1031D000FF2C04D11D481E493C2201F031FA1D4B41
:1031E0002C7153F8243008342B601B4B2846D3F83D
:1031F000C42042F04002C3F8C420D3F8A82122F42E
:103200004052C3F8A821A3F564230022DA60022209
:103210005A61D96C0122A2400A43DA640F4B104A6A
:103220001B6844F62061B3FBF2F30E4A1360FFF70C
:10323000ABFF28460021FFF77DFF3046BDE8704018
:10324000014901F081B900BF5C01010010020100D9
:1032500023020100E800001000C00F400801001028
:1032600000093D00B422001070B5044603685B6A93
:103270009847236820461B69002101229847431C78
:103280000646236804D120469B6A9847304670BDA5
:103290001B692046002102229847236805463146D3
:1032A00000221B6920469847236820469B6A98475E
:1032B000284670BD08B5084B1B685BB9074808492C
:1032C000084A00F0A7FC05484FF41651BDE8084035
:1032D00000F082BA08BD00BFC82300102C2F0010D8
:1032E00002C0092003C009207047000002284FF0E7
:1032F000000309DD0749C21E51F8220041F82230BF
:1033000020B103685B681847184670474FF0FF30DC
:10331000704700BFC4220010022870B50C46154645
:103320000FDC0E4B1B680BB9FFF7C4FF6619B442E4
:1033300005D00B4814F8011B00F0D0FBF7E7284636
:1033400070BD084B033853F8200020B1BDE8704031
:1033500003681B6818474FF0FF3070BDC82300108A
:103360002C2F0010C4220010022810B50C460ADCD5
:103370000B4B1B680BB9FFF79DFF0A4800F06AFB77
:103380002070012010BD084B033853F8200020B1F5
:10339000BDE8104003689B6818474FF0FF3010BD30
:1033A000C82300102C2F0010C4220010022807DDB3
:1033B000064B033853F8200020B10368DB68184738
:1033C000012070474FF0FF30704700BFC42200104B
:1033D000022807DD064B033853F8200020B10368AC
:1033E0001B691847002070474FF0FF30704700BF3F
:1033F000C4220010022808B504D84FF400534B60D3
:10340000002008BD01F058FA092303604FF0FF3097
:1034100008BD08B5012001F055FA08B5FFF764FFB3
:10342000FEF7E2FA08BD704708B5FFF7FCFFBDE8FC
:103430000840FFF729B800000C4A10B5136818447B
:10344000EFF30881884205D3094B0C221A604FF034
:10345000FF3010BD0749096821B1074C2468214499
:103460008842F1D21060184610BD00BF0401001060
:10347000342F0010C0220010C4230010094C08B5DE
:1034800023680546986801F031FB2368D86801F08D
:103490002DFB01F042F908B101F041F90DB1FFF740
:1034A00069FDFEE73805001001207047002102F099
:1034B00081BA08B5FEF7A6FA08BD08B5FEF7AAFA64
:1034C00008BD000010B502F04DF8044610B90248DE
:1034D00001F018F9204610BD3A03010010B502F0C2
:1034E00041F8044610B9024801F00CF9204610BD1D
:1034F0005703010008B102F03DB8704708B102F06F
:1035000039B87047034653F8042B10B5044602B986
:10351000036022689A4204D003480449592201F00A
:103520008FF8206810BD00BF46FD00007603010043
:103530000B4B10B5036004460A48FFF7E3FF002376
:10354000094A52F82310A14204BF002142F8231077
:103550000133402BF4D10348FFF7D4FF204610BDC0
:10356000D8030100B8220010C42200102DE9F34155
:1035700088463649054602F065FB044610B9FFF758
:1035800099FE5EE02846324902F05CFB18B9FFF76D
:1035900091FE012455E028462E4902F053FB18B94C
:1035A000FFF788FE02244CE02B48FFF7ABFF002416
:1035B0002A4E56F82430374633B10134402CF7D127
:1035C0002548FFF79FFF3AE04FF0FF33224846F8C7
:1035D0002430FFF797FF2B783A2B06D12846204955
:1035E0006A4602F0BDFA009824E06846294600F0D9
:1035F0002DFD684600F06CFD10B946F824001EE071
:10360000684600F053FD18B1684600F058FD11E01F
:10361000684600F044FD054610B946F824000EE067
:10362000036868469E6800F02FFD28F4803201464A
:103630002846B04747F8240008B1033401E04FF0B2
:10364000FF34204602B0BDE8F08100BF7C020100DB
:10365000C803010083020100B8220010C422001038
:10366000C4030100012810B502D0022811D010BDFA
:10367000034638225143114842184058E8B113B963
:1036800092F83620CAB1BDE810400D4A19461268BA
:1036900010470A48382303FB01035868013005D05E
:1036A00018699C68046093F836300BB10023E0E79A
:1036B000506820F001005060DBE710BDD0230010FF
:1036C000CC230010034A00219068C0F34200FFF7AA
:1036D000C9BF00BF00C00040034A01219068C0F389
:1036E0004200FFF7BFBF00BF00000140034A0221B4
:1036F0009068C0F34200FFF7B5BF00BF00800940EB
:10370000034A03219068C0F34200FFF7ABBF00BF3C
:1037100000C0094070B5284B04689C4211D006DCFB
:10372000A3F580439C4212D1244D052311E0244B84
:103730009C4209D003F580439C4208D1214D0823C7
:1037400007E0214D062304E0204D072301E000257A
:103750002B4672B16268012606FA01F10A436260E3
:103760005CB220462946FFF769FA194BA6401E6055
:1037700070BD01290AD04568164A382606FB052285
:1037800092F8365030325279D54213D1012202FAE2
:1037900001F6B1FA81F16568490925EA0605656017
:1037A000006802FA01F14068014202BF9A40084BEA
:1037B000C3F8802070BD00BF00000140C536000086
:1037C0000080094001370000D9360000ED360000C6
:1037D00000E100E0D02300102DE9F04F0268734BA8
:1037E0008DB09A4206460F4604DD714871499B220E
:1037F00000F026FF3368704A934223D00FDCA2F515
:103800008042934239D16D4BD3F8A82122F0C002F7
:10381000C3F8A821D3F8A82142F040021DE0684A6D
:1038200093421DD002F58042934226D1634BD3F8D8
:10383000AC2122F44022C3F8AC21D3F8AC2142F4ED
:10384000802218E05D4BD3F8A82122F44072C3F81F
:10385000A821D3F8A82142F48072C3F8A8210CE073
:10386000564BD3F8AC2122F44032C3F8AC21D3F844
:10387000AC2142F48032C3F8AC21524B3D01D3F865
:1038800000B0BBFBF5F305FB13B51FFA83F9002D60
:1038900053D04FEA4B0305934FF0010A4FEA8B03D5
:1038A000069303935346059A0197CDF808B0049701
:1038B000002501995FFA8AFC4FF00008002A5FFAA0
:1038C00088F00790ABBF0398B2FBF1F4B0FBF1F4C2
:1038D0002409A8BF64090134C4F34F04002C49D063
:1038E000B8F1000F02D0012C98BF022408EB0A00A7
:1038F00060430893029BC000B3FBF0F00130C7EBBC
:103900005000CDF82CC00A91099200F0CBFF049B27
:10391000099A98420A99089BDDF82CC005DAB8424A
:103920002ED06346A146079D049008F101085FFA76
:1039300088F060453944C1D326E00123316845EA67
:1039400003150A7BEDB242F080020A733268C9F3B4
:103950000721117132685FFA89F982F800903268A4
:1039600082F828503268137B03F07F0313730DB085
:10397000BDE8F08FB8F1000F14BF02240124B5E7B1
:103980006346079DA146D9E7BAF10F0FD6D0029939
:1039900006985944029105990AF1010A0A440399CB
:1039A0000144039101993944019182E700C0094023
:1039B00094040100AD0401000000014000C00F406C
:1039C0000080094008010010F8B55E1E012E074670
:1039D0000C46154604D914481449FB2200F030FE69
:1039E000053C032C04D912481049FC2200F028FEA3
:1039F000042D04D90F480D49FE2200F021FE013D9F
:103A0000EDB2032D87BF002211460B4B012198BF59
:103A10005A5744EA860343EAC104386844EA021468
:103A2000E4B20473F8BD00BF06050100AD04010057
:103A30002B0501004E050100E2050100034B196052
:103A4000416838234B430249CA507047CC230010C9
:103A5000D0230010024610B501680B7DDB07FCD5B2
:103A60000B785268D8B2084B382404FB02335A68EA
:103A700001321FBF5A699B6813604B681CBF43F03B
:103A800001034B6010BD00BFD02300104268124BF1
:103A9000382101FB0233D96903F11802013109D041
:103AA0001B6B19689368194214D10368187DC0F321
:103AB0008010704702683033127D12F0200F03D05F
:103AC00000221A710120704718790F288CBF00203E
:103AD0000120704700207047D023001038B50446FD
:103AE0000D462046FFF7D2FF0028FAD02368EDB23A
:103AF0001D706268044B382101FB023393F83420B7
:103B0000013283F8342038BDD02300102DE9F84F5E
:103B10009A463C4C03680546A34218BF00248846D9
:103B2000914647681CB1237C03F03F032374364E53
:103B3000382202FB07634FF0FF31D96159606B688F
:103B4000002102FB0363284683F835100A46FFF77D
:103B5000E1FDB8F1000F52D02C49484600F022FD9B
:103B60002B498346504600F01DFDA8F10203012BAE
:103B700017D8BAF1FF3F3FD0224B984209D144B148
:103B8000237C504643F080032374214900F0DCFC81
:103B900032E0382000FB076051461C3000F0B7FCD3
:103BA0002AE0B8F1010F2AD1B9F1FF3F27D02B68E5
:103BB00007221A72134B9B450AD14CB1237C48460D
:103BC00043F0400323741149BDE8F84F00F0BCBC3A
:103BD000382404FB076049460430002200F09AFCB8
:103BE0006B68012204FB036686F835202846BDE891
:103BF000F84F0021FFF78EBDB8F1030FD3E7BDE802
:103C0000F88F00BF00000140D02300100404010021
:103C1000540601002DE9F84305460F4608464D4974
:103C2000164600F0CBFC4C490446304600F0C6FC7A
:103C30000146204600F0A4FC411C044604D147483C
:103C400047495C2200F0FCFC464B2C609C4217D09C
:103C500009D8A3F580439C421FD1434AD2F8C4300F
:103C600043F0080317E0414B9C420FD003F580431B
:103C70009C4212D13C4AD2F8C43043F000730AE0AF
:103C8000394AD2F8C43043F0100304E0364AD2F87F
:103C9000C43043F08073C2F8C4304FF0010984F897
:103CA00008902B684FF00008C3F8048028464FF4B2
:103CB0001651FFF791FD42464B4628460821FFF773
:103CC00083FE3846234900F03FFC3046224900F08D
:103CD0003BFC7A1C03D038464146FFF7F1F9731CD0
:103CE00003D030460021FFF7EBF91E4B9C420FD06A
:103CF00005D8A3F580439C420ED100230BE01B4B5B
:103D00009C4207D003F580439C4205D1032302E087
:103D1000012300E002236B606A68154B382101FB28
:103D200002334FF0FF325A60DA6128461346002111
:103D3000FFF7ECFE0F4B9C4209D10F4B01221A609A
:103D40002946BDE8F8430D48082201F061BCBDE8F2
:103D5000F88300BFE805010028040100D205010036
:103D6000AD0401000000014000C00F400080094088
:103D7000D023001000C00040C82300102C2F0010DA
:103D80000649074A074B9A42BEBF51F8040B42F856
:103D9000040BF8E70448804704480047040E01007C
:103DA000C8000010D40A0010C53D00002901000021
:103DB000FEE7FEE7FEE7FEE7FEE7FEE7FEE7FEE7DB
:103DC000FEE7FEE7264B2022C3F8A021D3F8A0216E
:103DD000900603D5D3F8A0215106FBD50222C3F8E3
:103DE00004210022C3F8A8210120C3F8AC210B2232
:103DF000C3F80C01AA21C3F884205522C3F88C1003
:103E0000C3F88C20C3F88000C3F88C10C3F88C2052
:103E1000134BD3F888205201FAD50322C3F880202F
:103E2000AA22C3F88C205522C3F88C20D3F888101E
:103E30000B4A11F0407FF9D00523C2F80831094B35
:103E4000C2F8C4300023C2F8C831136823F47043A9
:103E500023F03A0343F4405343F03A0313607047AE
:103E600000C00F40DE87280408B5114B1868E8B978
:103E7000104A01211960D2F8C43043F40003C2F89B
:103E8000C430A2F5D0220C4B10671B680220506092
:103E90000A489B08B3FBF0F3013BD3600420516058
:103EA0000749FEF7CBFE074B10221A6008BD00BF82
:103EB000B024001000C00F400801001040420F0065
:103EC000E545000000E100E008B5044B1B680BB9B4
:103ED000FFF7CAFF024B986808BD00BFB02400106E
:103EE00000400940034B98615A6942F001025A614F
:103EF000704700BF00400940024A536923F00103A4
:103F00005361704700400940014B01221A6070471D
:103F1000004009407047704770B504460546064B9F
:103F200000F14006036055F8040F08B1FFF7E2FA0C
:103F3000B542F8D1204670BD8006010010B5044698
:103F4000FFF7EAFF2046FFF7D5FA204610BD000034
:103F50002DE9F0410546A84690B08DE80E00169B6D
:103F600020480393179B00240493189B2860059313
:103F7000199B6C6406931A9B07931B9B08931C9BCD
:103F800009931D9B0A931E9B0B931F9B0C93209BD5
:103F90000D93219B0E93229B0F935DF824707B1C45
:103FA0000CD01820FFF78EFA06460021182201F0E7
:103FB00009FC3046394600F0C4FA00E0002601371B
:103FC0001FBF01236A6CA340134304F1010448F8A6
:103FD000046F18BF6B64102CDFD1284610B0BDE809
:103FE000F08100BF8006010003682DE9F0419B6865
:103FF000064688469847012456F82450631E8DB122
:1040000048FA03F72B6807F00107013304D10A4887
:104010000A49242200F014FB6B680FB1EA6800E043
:104020002A6913600134112CE6D133683046BDE8AB
:10403000F041DB68184700BFB3FD000098000100A5
:1040400010B50446FFF7D0FF204610BD10B5002381
:10405000036043600A7804462F2A13D14A788AB154
:10406000481C1946206023681A782F2A02D1013390
:10407000236004E01AB1013301312360F3E700F05B
:10408000F1FB6060204610BD00687047406808B5CD
:1040900020B100F09BFB431E5842584108BD10B5AB
:1040A0000446FFF7F3FF00B1606810BD406808B533
:1040B00020B100F08BFBB0FA80F0400908BD10B5CC
:1040C0000446FFF7F3FF10B1606800B1043810BD7B
:1040D0004068003018BF01207047704710B5044693
:1040E000074B40F81C3BFEF7C3FE04F13800FEF717
:1040F0008BF804F12800FEF787F8204610BD00BFBA
:104100000007010010B50446FFF7E8FF2046FFF75F
:10411000F1F9204610BD000038B504460D46FEF703
:1041200073F82CB10DB9E56038BD024B2560E36032
:1041300038BD00BF68FD0000F8B5054604460E46D0
:10414000124B182245F8043B114F2846002101F07C
:1041500039FB0023E361236263626363636404F1F8
:1041600028003946FFF7D8FF04F138003946FFF739
:10417000D3FF3146074A234604F11C00FEF740FEF8
:104180002846314600F0C3F92046F8BD000701007B
:10419000DB400000154200002DE9F0410D460646C7
:1041A00000F068FAEF6806F1280406F11C082046C2
:1041B00077B1FEF729F83CB1EB681BB15B6820468C
:1041C00029469847EB687363012140460A4605E09B
:1041D0000549FFF7A1FF40463A460121FEF750FE90
:1041E000BDE8F04100F070BADB400000C36810B5D4
:1041F00004462BB90548064940F28F2200F020FA08
:10420000E3682046BDE810401B68184756FE0000D2
:1042100008070100012908B502D0022902D008BD13
:10422000283000E03830FFF7E1FF08BD7047A0F10B
:104230003000FFF7FBBF7047A0F13000FFF7FBBF76
:1042400000F03EB8A0F13000FFF7FABF00F03BB835
:10425000A0F13000FFF7FABF38B504461D46049BB5
:1042600000F038F804F13000294600F0A9F8054BB9
:10427000204603F10802226003F12802643322631E
:10428000636338BD580701007047704770470000EE
:1042900070B509014418A36945180C352BB90648B7
:1042A000064940F28F2200F0CBF9A3692846BDE809
:1042B00070401B68184700BF56FE00000807010049
:1042C0000430FFF7C7BB10B50C460430FFF706FCFF
:1042D000204610BDF8B51646174A00F10C050260DD
:1042E000002204464260826082618262C362284684
:1042F0000F46FDF789FF1DB1104BE360104BA36122
:1043000004F11C052846FDF77FFF1DB10B4BE3614F
:104310000B4BA362251D324628463946FFF77AFC2F
:104320002846E16AFFF758FA284606492246FFF771
:1043300085FB2046F8BD00BFD00701008942000080
:1043400068FD00009142000000207047F8B50E465D
:10435000036804465B6A8F1835469847BD4208D00B
:1043600023682046DB6A15F8011B98470130F5D118
:104370002F46236820469B6A9847B81BF8BDF8B5BE
:104380000E46036804465B6A8F1835469847BD425F
:1043900008D0236820461B6B9847431C02D005F8C1
:1043A000010BF4E7236820469B6A9847A81BF8BDD9
:1043B00000207047002070470020704700207047A1
:1043C0001FB5044600F0DCF90B4B01A803F108020D
:1043D000443363600023636122600849224601F090
:1043E00099FB074901A800F0D1FC6061FFF75EF876
:1043F000204604B010BD00BFE0070100C403010067
:104400002C08010010B50446064B03F108024433A2
:1044100002604360406900F0A7FA204600F0C4F94A
:10442000204610BDE00701000EB477B504460368CE
:1044300007AD55F8046B5B6A98476069019500F019
:1044400055FB3146019A606905F0B2FC05462368C8
:1044500020469B6A9847284603B0BDE8704003B0E9
:10446000704710B5044600F005F923682BB9E068E1
:1044700000F0E2F8012360602360BDE8104000F026
:1044800023B910B5044600F0F5F8E06800F0D4F860
:1044900000236060A360BDE8104000F015B9002360
:1044A00010B5036043608360044600F097F8E06055
:1044B0002046FFF7E6FF204610BD000038B5036830
:1044C000044601330D4604D105480649242200F074
:1044D000B7F863680DB1E26800E02269136038BD87
:1044E000B3FD00009800010070B50E460446154665
:1044F000FEF7DAFB013609D020460021FEF7EEFB7D
:1045000020462946BDE87040FEF7E5BB70BD03229A
:10451000FFF7EABF70B50E4604461546FEF7C4FB2A
:1045200001360DD020462946FFF7C8FF204601215D
:10453000FEF7D4FB2046BDE870400221FEF7CBBB5E
:1045400070BD0022FFF7E6BF10B50446013001D16F
:1045500010BD0C310B685A1C0BD0A342F9D1204678
:104560008968FEF785FD2046BDE810400221FEF770
:10457000A7BD0248BDE8104000F0C4B82F080100F4
:10458000884208B50AD0431C07D0013106D0044840
:1045900000F0B8F84FF0FF3008BD084608BD00BF76
:1045A000400801000B685A1C05D0834201D14868BD
:1045B00070470C31F6E7184670470000421C10B5F2
:1045C000044607D0FFF7EEFF431C044602D1024821
:1045D00000F098F8204610BD5108010000487047CF
:1045E000A4080100014800F003B800BFA4080100BE
:1045F000036870B5DB680446984763685A682368A7
:104600001AB99B68BDE8704018475B681568984701
:10461000281A0028636808DC5A68916859601B688A
:10462000002BEAD050689847E7E721685A68BDE850
:1046300070400B691068184703685B6818470000F2
:1046400070B506460D46144600F014F831462A4669
:1046500023460348FEF7FEFCBDE87040FEF78ABC27
:10466000AC080100EFF3108000F0010080F00100C1
:104670007047000038B5FFF7F5FF80F00100C5B2C4
:1046800072B60C4C23680BB90B4B1D7023680133B9
:1046900004D10A480A493322FFF7D2FF23682BB11D
:1046A00025B9084806493722FFF7CAFF23680133B6
:1046B000236038BDC4240010C8240010DD080100A8
:1046C000030901004609010010B50A4C236883B1B3
:1046D000FFF7C8FF20B1084808494822FFF7B0FF9C
:1046E0002368013B236023681BB9054B1B7803B982
:1046F00062B610BDC4240010460901000309010080
:10470000C82400100FB407B504A951F8040B019197
:10471000FEF774FC012000F0D5F800F00BB830B5BE
:1047200085B06D46182420462946ABBE0446204677
:1047300005B030BD024B186800F00100704700BFA3
:10474000F0ED00E038B50446FFF7BEFB0546FFF785
:10475000BBFB401BA042FAD338BD000008B504499A
:104760000AF0C4F80AF088FABDE80840FFF7EABF8B
:10477000002474494FF47A735843FFF7E3BF0000F5
:1047800010B50446064B002240F8043B00F020F828
:10479000044B204603F108023C332260636010BDE5
:1047A000D80301006009010010B50446064B03F16F
:1047B00008023C33026040F8043F00F027F820462E
:1047C000FEF7B6FE204610BD60090100007B704771
:1047D00038B504460D460A4B036000234360A160D0
:1047E00002730848FEF78EFE25B1074B1A681C605D
:1047F000626000E065600348FEF784FE204638BD35
:10480000B0090100D0240010CC24001010B50446DB
:104810000C4B03600C48FEF775FEA3686BB10B4AA6
:104820001368A34202D16368136006E05A68A2428B
:1048300001D01346FAE762685A600348FEF762FE49
:10484000204610BDB0090100D0240010CC24001077
:1048500010B50446FFF7DAFF2046FEF74BFE204670
:1048600010BD000070B506460C480D46FEF74AFE26
:104870000B4B1C686CB1A06848B131462A4601F068
:10488000EDFA20B9A06801F0BBFAA84201D0646833
:10489000F0E70248FEF736FE204670BDD024001037
:1048A000CC2400100028B8BF4042704700230146C6
:1048B0001A46184605F0B4BB014B1868704700BF94
:1048C0003805001008B50021044605F005FC044B2E
:1048D0001868C36B03B198472046FEF7CFFD00BFB1
:1048E000B809010000293DD070B505460C4608B155
:1048F000836B7BB3B4F90C300BB9002070BD21463B
:10490000284600F039F8E36A064633B1E1692846E3
:1049100098470028B8BF4FF0FF36A3891B061CD468
:10492000216B41B104F14003994202D028460AF0BC
:104930007DFB00232363616C21B128460AF076FBDE
:104940000023636400F0C4F90023A38100F0C2F9DE
:10495000304670BD00F0B6F9CCE7216928460AF070
:1049600065FBDDE700207047024B01461868FFF742
:10497000B9BF00BF38050010B1F90C302DE9F04186
:104980009AB20D46110780463CD46A6843F400632E
:10499000002AAB8173DDAC6A002C4BD09BB203F4D0
:1049A0008052002192B2D8F80060C8F80010002AA6
:1049B00069D02A6D5F0705D569682B6B521A0BB158
:1049C000EB6BD21A0023E9694046A047441C3CD057
:1049D000B5F90C30296923F400630022AB81DB04B4
:1049E00085E8060049D4296BC8F8006011B305F1C9
:1049F0004003994202D040460AF018FB0020286389
:104A0000BDE8F0812E69AEB190072C680CBF6B69D0
:104A100000232E60A41BAB600AE0234632466F6A77
:104A2000E9694046B8470028A4EB0004064404DDC9
:104A3000002CF2DC0020BDE8F081AB894FF0FF30A4
:104A400043F04003AB81BDE8F081D8F800201D2A77
:104A5000F3D81A4BD34003F0010383F00104002B79
:104A6000EBD0B5F90C30296923F400632960D9042F
:104A70006C60AB81B7D5002AB5D12865B3E7EA6B86
:104A8000002A88DCD6E70123E9694046A047431C99
:104A9000024602D0AB89AC6A8CE7D8F80030002B14
:104AA000F8D01D2B01D0162B02D1C8F80060C1E749
:104AB000AB8943F04003AB81BDE8F08101004020A9
:104AC00010B5044682B008B1836B53B1B1F90C0044
:104AD00008B902B010BD204602B0BDE81040FFF793
:104AE0004BBF019100F0EEF80199EFE720B1054BC3
:104AF00001461868FFF7E4BF034B0449186800F04B
:104B00006DBC00BF38050010B8090100C14A0000A3
:104B1000014900F063BC00BFE54800002DE9F04FFB
:104B2000074635487D68002407F53B7204230321BE
:104B3000F863C7F8E412C7F8E822C7F8E04283B088
:104B40002C606C60AC606C66EC812C616C61AC615B
:104B5000AB81214605F15C00082200F033FEDFF84E
:104B60009CB0BE68DFF898A0DFF89890DFF89880D6
:104B700001230922C5F820B0C5F824A0C5F8289063
:104B8000C5F82C80ED612146F381B28106F15C000D
:104B900034607460B460746634617461B461082216
:104BA000019300F00FFEFD6812200222F661C6F8A4
:104BB00020B0C6F824A0C6F82890C6F82C8021465C
:104BC000A881EA812C606C60AC606C662C616C61C1
:104BD000AC6105F15C00082200F0F4FD019BED6181
:104BE000C5F820B0C5F824A0C5F82890C5F82C80D9
:104BF000BB6303B0BDE8F08F114B0000B95B000050
:104C0000E15B00001D5C00003D5C000070B56823A6
:104C10004D1E03FB05F50E4605F174010AF002FA7C
:104C2000044640B100210C30666005F16802216045
:104C3000A06000F0C7FD204670BD00BF204B70B5DE
:104C40001D680646AB6B13B92846FFF767FF05F5ED
:104C500038756B68AC68013B05D521E0013B5A1CF7
:104C600004F168041CD0B4F90C20002AF6D14FF6E8
:104C7000FF7200250123E281A38165662560A5609E
:104C8000656025616561A5612946082204F15C0023
:104C900000F098FD2046256365636564A56470BDDA
:104CA0002B680BB11D46D4E704213046FFF7AEFF59
:104CB000286008B10546CCE70C23336070BD00BF07
:104CC000B8090100836B03B17047FFF727BF00BF2E
:104CD000704700BF704700BF38B5074D074C2C1B0D
:104CE000A41005D0013C55F8043D9847002CF9D19B
:104CF000BDE838400AF0B2BFD40A0010D00A001054
:104D00001346F0B583B00F4601AA1946064606F0D1
:104D10001DFAF0B105463046FFF790FF0446C0B1DA
:104D200039464FF4DB73019A304600F099FD0028B4
:104D30001BDB124B124F1349134AE362EB05E08170
:104D4000A581E46127626162A26205D4204603B0B6
:104D5000F0BD002003B0F0BD304602230022214602
:104D600000F01CF8204603B0F0BD0025FFF7B0FFAF
:104D7000A581FFF7AFFF2846E9E700BF3D5C0000D3
:104D8000B95B0000E15B00001D5C0000024B0A46BD
:104D900001461868FFF7B4BF3805001000F000B8EE
:104DA0002DE9F04F0C4691B091461E46054610B1D4
:104DB000836B002B74D0A38903F48473B3F5847FD1
:104DC00076D0D4F82880B8F1000F00F04481012E8D
:104DD0004BD0022E08D03EB116232B604FF0FF3788
:104DE000384611B0BDE8F08F4FF0000A57462369EE
:104DF000002B00F01B8140F61A03B4F90C2091B28D
:104E00000B4043B949055ED4954B984500F0FA80B4
:104E100042F40062A28121462846FFF751FE074670
:104E20000028DBD133464A46E1692846C0470130B5
:104E3000D4D0216B41B104F14003994202D02846FD
:104E40000AF0F4F800232363A389226923F40263A0
:104E500000212260A381616004F15C00082200F05F
:104E6000B1FC384611B0BDE8F08F21462846FFF767
:104E700027FEA38903F4805292B2002A00F0B88082
:104E8000276D5E0759D4180740F1B0802268236966
:104E90000AB1D21A1744B9444FF0010A0026A7E715
:104EA000FFF710FFA38903F48473B3F5847F88D1DF
:104EB00021462846FFF704FE83E7A3894FF480626A
:104EC0001343A381E264002E40D1CB46BAF1000F18
:104ED0004BD1A389DA0440F1AE80206D6368216B69
:104EE000C71A002900F0B080E26BBF1A1F44206986
:104EF000A36B1B1AFF1A1344BB453CDBFA185A4537
:104F000039D9C7EB0B073844DB1B84E8090041B1F2
:104F100004F14003994202D028460AF087F80023A2
:104F20002363A38904F15C0023F02003A3810822FA
:104F3000002100F047FC002752E76268236BBF1A8C
:104F4000002B53D0E26B2369BF1AA4E701AAB4F97E
:104F50000E10284600F086F800287FF45CAF059B11
:104F600009EB030BBAF1000FB3D0216B6368002982
:104F70006AD0E26BBAE7E76C00237F4207EA0B07CF
:104F80003A46E1692846C04701303FF444AF2369FF
:104F9000216B23600023636041B104F14003994217
:104FA00002D028460AF042F800232363A389BBEB12
:104FB000070B23F02003A38110D02146284600F0E0
:104FC0006FFC00287FF427AF626893453FF623AF5C
:104FD0002368CBEB02025B446260236004F15C0057
:104FE0000822002100F0EEFB0027F9E6236952E7D2
:104FF0003346E1692846C047431C07463FF4EEAEFE
:10500000A3893EE7B4F90E100029FFF601AF01AA0B
:10501000284600F027F830B9029B03F47043B3F53B
:10502000004F3FF44AAFB4F90C20F1E62146284680
:1050300000F054FADFE601235246E1692846C047F2
:10504000431C7FF44BAFE6E6226820690021121A68
:10505000BF1A134450E71D232B604FF0FF37BFE604
:105060001D5C000038B50B46074C05461146184636
:1050700000232360FEF7BEF9431C00D038BD23682F
:10508000002BFBD02B6038BD342F00109368002B11
:1050900000F0AB802DE9F04F8B8985B00C461907E5
:1050A0000290164628D5226932B303F002081FFA8F
:1050B00088F0356878B34FF00009C846DFF8D0A211
:1050C000B8F1000F00F08B80D04543464A4628BF18
:1050D0005346E1690298676AB847002840F3A58003
:1050E000B36881441B1AC0EB0808B360002BE7D1FA
:1050F000002005B0BDE8F08F2146029804F02CFF97
:10510000002840F03C81A389356803F002081FFAAB
:1051100088F00028CFD113F0010940F090804F466D
:105120000196002F56D09A05D4F808805FD54745E0
:10513000C246C0F0BF8013F4906F00F0BD8062697A
:105140002068216902EB4208C1EB000A08EBD8781D
:105150000AF101004FEA680838444045424684BFDE
:10516000804642465B0540F1F2801146029809F004
:1051700059FF8346002800F005815246216900F05E
:1051800047FAA38923F4906343F08003A381CAEB19
:1051900008030BEB0A00C4F81480BA46B846C4F8FA
:1051A00010B02060A3605246494600F0A7FAA068FC
:1051B0002368C8EB0000A060384653442360019A7E
:1051C000814493683F1A1B1A9360002B90D0A389E7
:1051D000002FA8D1D5F800906F680835A1E7D5F861
:1051E0000090D5F8048008356AE7002070472068F1
:1051F0002369984203D86269974280F08380B8455A
:1052000028BFB8464946424600F078FAA3682268AB
:10521000C8EB03034244A3602260002B48D121461F
:105220000298FFF74DFC002842D0B4F90C3043F04F
:1052300040034FF0FF30A38105B0BDE8F08F8046FA
:10524000824681460190B9F1000F29D0019B002BC5
:105250004BD0C845C34628BFCB46206823695F466C
:105260009842626903D9A36813449B455CDC93456B
:1052700024DB1346676A5246E1690298B847071E65
:10528000D3DDB8EB070827D0B368BA44DB1BC7EB04
:105290000909B360002B3FF42BAFB9F1000FD5D152
:1052A0000023D5F800A0D5F8049001930835CAE78B
:1052B000404684E7B846BA46206874E75A465146E5
:1052C00000F01CFAA2682368CBEB02025B44B8EB47
:1052D0000708A2602360D7D121460298FFF7F0FBB0
:1052E0000028A2D1CDF80480CEE74A460A215046D4
:1052F00000F048F900283DD001300123CAEB000836
:105300000193A6E76FF00043BB4228BF3B4693FBE7
:10531000F2F3E16902FB03F302984A46666AB0477A
:1053200000283FF74CAF80E71A465146039300F040
:10533000E5F92268039B21461A4422600298FFF790
:10534000BFFB039B00287FF470AF1F4699E70298CC
:1053500009F06AFE834600287FF419AF029D216997
:10536000284609F063FEB4F90C300C2223F08003C8
:105370002A605CE7012309F10108019369E74FF016
:10538000FF30B6E6029A0C231360B4F90C304EE7F6
:1053900000FCFF7F2DE9F04110F538771AD08846E0
:1053A00000267D68BC68013D0ED4A389013D012B18
:1053B00006D9B4F90E30013302D02046C047064367
:1053C0006B1C04F16804F0D13F68002FE9D130462E
:1053D000BDE8F0813E463046BDE8F0812DE9F84356
:1053E00010F538761ED0884607464FF000097568DC
:1053F000B468013D10D4A389013D012B08D9B4F94B
:105400000E30013304D021463846C04749EA00092E
:105410006B1C04F16804EED13668002EE7D14846D3
:10542000BDE8F883B1464846BDE8F88370B50F4E35
:105430000F4D761BB61018BF002405D0013455F867
:10544000043B9847A642F9D10A4E0B4D0AF000FCE6
:10545000761BB61018BF002406D0013455F8043B63
:105460009847A642F9D170BD70BD00BFB80A0010C0
:10547000B80A0010D00A0010B80A001070B50E4625
:10548000B1F90E1090B0002914461D4614DB01AA94
:10549000FFF7E8FD00280FDB029A4FF4806302F467
:1054A0007042A2F50052B2FA82F24FF40060520943
:1054B0002A60236010B070BDB289002002F0800223
:1054C00092B228601AB14023236010B070BD10461C
:1054D0004FF48063236010B070BD00BF8A890B4613
:1054E000920706D501F1430201211A601A61596140
:1054F0007047F0B583B001AB6A460C460546FFF72E
:10550000BDFF00990646284609F08CFDB4F90C3021
:10551000D0B19DE80600124F43F08003EF63A381F2
:105520002060206161611AB93343A38103B0F0BDEB
:105530002846B4F90E1005F043FEB4F90C300028EB
:10554000F2D043F00103EFE79A05EFD404F14302F0
:1055500043F002030121A381226022616161E5E73A
:10556000114B0000024B0146186809F05BBD00BFFB
:1055700038050010024B0146186809F057BD00BFFE
:1055800038050010830770B4CDB23DD0531E02B36E
:105590000278AA421ED0421C04E0D3B10478013B39
:1055A000AC4217D012F0030F104602F10102F4D101
:1055B000032B11D853B30278AA420BD00344421CE8
:1055C00002E00178A94205D09342104602F101029F
:1055D000F7D1002070BC704704460E0206F47F46E7
:1055E0002E4346EA0646226820467240A2F1013167
:1055F00021EA020212F0803F04F10404DBD1043BF3
:10560000032B2046EFD8D5E71346D1E71846E1E74C
:10561000844641EA000313F0030349D1403A23D3FF
:105620000B6803604B6843608B688360CB68C36022
:105630000B6903614B6943618B698361CB69C3610A
:105640000B6A03624B6A43628B6A8362CB6AC362F2
:105650000B6B03634B6B43638B6B8363CB6BC363DA
:1056600040304031403ADBD230320BD30B6803601C
:105670004B6843608B688360CB68C3601030103127
:10568000103AF3D20C3205D351F8043B40F8043BF6
:10569000043AF9D2043208D0D2071CBF11F8013BFA
:1056A00000F8013B01D30B8803806046704700BFC0
:1056B000082A13D38B07B1D010F00303AED0C3F187
:1056C0000403D21ADB071CBF11F8013B00F8013BB1
:1056D000A4D331F8023B20F8023B9FE7043AD9D328
:1056E000013A11F8013B00F8013BF9D20B78037045
:1056F0004B7843708B788370604670478842F0B572
:105700000DD98B1898420AD28118002A51D09A1AC2
:1057100013F8014D934201F8014DF9D1F0BD0F2A64
:1057200048D941EA00039B0746D1154600F1100411
:1057300001F1100353F8106C103D44F8106C53F84D
:105740000C6C0F2D44F80C6C53F8086C04F1100429
:1057500044F8186C53F8046C03F1100344F8146C0B
:10576000E8D8A2F1100323F00F0302F00F0E10335C
:10577000BEF1030F1944034421D90E4674461D1F80
:1057800056F8047B043C032C45F8047FF8D8AEF1AE
:10579000040424F0030404342344214402F00302EB
:1057A00062B1013B0A4411F8014B8A4203F8014FF0
:1057B000F9D1F0BD0346F3E70346F2E7F0BD7246C8
:1057C000EEE700BF70B4840746D0541E002A41D0D3
:1057D000CDB2034602E0621EE4B3144603F8015B57
:1057E0009A07F8D1032C2ED9CDB245EA05250F2C06
:1057F00045EA054519D9264603F11002103E0F2E41
:1058000042F8105C42F80C5C42F8085C42F8045C18
:1058100002F11002F2D8A4F1100222F00F0204F0FB
:105820000F041032032C13440DD91E462246043AAD
:10583000032A46F8045BFAD8221F22F0030204323E
:10584000134404F003042CB1C9B21C4403F8011B37
:10585000A342FBD170BC704714460346C2E700BFA9
:1058600070B50D46084C114606461A4628460023D8
:105870002360FDF77BFE431C00D070BD2368002B26
:10588000FBD0336070BD00BF342F0010838903F05C
:105890000903092B01D000207047FFF727B900BF8B
:1058A000F8B50C46054610B1836B002B47D0B4F910
:1058B0000C309AB2970407D4626E43F4005322F47A
:1058C00000526266A3819AB200219606616033D4C9
:1058D000500722D5216B61B104F14003994202D0F7
:1058E000284609F0A3FBE36B002063602063002BD4
:1058F0003FD12369002B4CD0B4F90C70BEB2B30772
:1059000020D1226928462260256A6369E169A84797
:105910000028606009DD0020F8BDD1063ED51207E1
:105920002AD443F00403A381E3E7A3891BD0002218
:1059300043F04003A38162604FF0FF30F8BDFFF7F2
:10594000C1F9B4E7194A01231068A381184906F088
:105950000906FFF71FFD092EA781D2D1214628464F
:10596000FFF70AF8CDE743F020034FF0FF30A381A3
:10597000F8BDA36B2360F8BD21462846FFF7A0F8C9
:105980000028D9D1B4F90C30A060A06123F008033D
:10599000C7E721462846FFF7A1FDADE743F04003E6
:1059A00009222A604FF0FF30A381F8BDB809010039
:1059B0008D58000000290CBF022200224FF48063A2
:1059C00000F000B82DE9F043514D83B02D68044636
:1059D0000F4690461E4615B1AB6B002B79D0B8F13F
:1059E000020F04D0B8F1010F7FD8002E7DDB2146D5
:1059F0002846FFF765F8216B41B104F14003994255
:105A000002D0284609F012FB00232363B4F90C30BE
:105A10000022A26162601A0654D423F44A6323F080
:105A20000303B8F1020FA38139D001AB6A462146C6
:105A30002846FFF723FDA3891843A08126B327B387
:105A4000AB6B002B4DD0009BB4F90C009E421CBFE9
:105A500040F40060A081B8F1010F08BF40F00100E0
:105A600083B208BFA08103F0080080B227602761DD
:105A7000666118B313F001002FD000207642A661B2
:105A8000A06003B0BDE8F083009E3046FFF76AFDDA
:105A9000074668B3A38943F08003A381D0E70020C1
:105AA00004F1430243F0020300250121A381A56014
:105AB00022602261616103B0BDE8F083A06003B0A1
:105AC000BDE8F0832169284609F0B0FAB4F90C303A
:105AD000A3E72846FFF7F6F881E7A66003B0BDE824
