:1000000000800010E55A0000155B0000175B00003F
:10001000195B00001B5B00001D5B0000000000007E
:10002000000000000000000000000000F9010000D6
:10003000215B000000000000630200009902000044
:10004000275B0000275B0000275B0000275B0000A8
:10005000275B0000275B0000275B0000275B000098
:10006000275B0000275B0000275B0000275B000088
:10007000275B0000275B0000275B0000275B000078
:10008000275B0000275B0000275B0000275B000068
:10009000275B0000275B0000275B0000275B000058
:1000A000275B0000275B0000275B0000275B000048
:1000B000275B0000275B0000275B0000275B000038
:1000C000275B0000275B0000275B000010B5054C94
:1000D000237833B9044B13B10448AFF300800123F4
:1000E000237010BDD80A001000000000682C010029
:1000F000084B10B51BB108490848AFF30080084809
:10010000036803B910BD074B002BFBD0BDE81040BE
:10011000184700BF00000000DC0A0010682C010036
:10012000D40A001000000000154B002B08BF134B31
:100130009D46A3F5803A00218B460F461348144A8A
:10014000121A07F0DDF90F4B002B00D098470E4B29
:10015000002B00D098470020002104000D000D481E
:10016000002802D00C4806F03FFA06F0FDFF200000
:10017000290005F00BF806F043FA00BF0000080064
:1001800000800010000000007F510000D80A00101D
:10019000382F0010E9650000156A000080F3098817
:1001A0007047EFF309807047684680F309883F483D
:1001B0000078C00714BF0220032080F31488704722
:1001C000DFF8ECC0EFF305831B0618BF6047EFF3C1
:1001D0001483DB0708BF604700DF7047DFF8D4C037
:1001E000EFF305831B0618BF6047EFF31483DB07AB
:1001F00008BF604700DF7047EFF30980816911F89D
:10020000021CF1B990E80F10E047EFF3098C8CE87D
:100210000700294B93E8060091420FD039B12CE931
:10022000F00FC1F82CC00CB400F0B2FC0CBC1A608A
:10023000D2F82CC0BCE8F00F8CF309886FF0020EE6
:10024000704710B51D4A1268914209D81C4C54F8E9
:10025000214090E80F10A047EFF3098C8CE80F00C5
:1002600010BD00F0FDFB144B93E80600914210D046
:10027000EFF3098C2CE9F00FC1F82CC00CB400F09E
:1002800087FC0CBC1A60D2F82CC0BCE8F00F8CF3D1
:1002900009886FF0020E704700F052FCFFF7E3BFD1
:1002A00000F04CFC00F04CFCFFF7DDBF101A010021
:1002B000192A0000512A000010250010000000003B
:1002C000FCFFFFFF84B01A4A194B1B6843F47F03FD
:1002D0001360174B1B681B0203F07F43DB43019342
:1002E000019BB3FA83F38DF803309DF80330C3F11B
:1002F000080303930F4B1B681B0A03F007030293C9
:10030000029A039B9A4202D3029B013303930A4948
:100310006FF08072039B02FA03F303F07F42064BF7
:100320001B6823F07F4313430B6000BF04B070478A
:1003300020ED00E00CED00E01CED00E082B00123B8
:1003400001930BE0019B013B094A52F82330002B3B
:1003500001D1019B09E0019B01330193054B1B88EF
:100360001A46019B9A42EDD20023184602B070470C
:10037000B0270010021A010000B585B003900B46AB
:1003800001928DF80B30039B00221A70039B01220F
:100390005A70039B9DF80B209A70039B9DF80B20CD
:1003A00083F82420039B00225A60039B00229A605A
:1003B000039B0022DA60039B00221A61039B002248
:1003C0001A62039B00229A82039B0022DA82039B1B
:1003D00000221A83039B00225A83039B002283F886
:1003E0002520039B9B6A002B05D1074802F014FBD4
:1003F0000246039B1A630199039802F0D1F900BFEA
:1004000005B05DF804FB00BFA025001000B583B067
:1004100001900D4A019B5360019B02225A700B4BC5
:100420001B68002B0BD0094B1B681B69002B06D0E7
:10043000064B1B681B69019A926B1046984700BFD8
:1004400003B05DF804FB00BF102500100C25001060
:1004500000B583B00190019B002B07D1134800F039
:100460001DFC01900198FFF7D1FF1AE0019B9A78DB
:100470000F4B1B689B789A420CD90D4B1B68184692
:1004800000F038FC0A4B1B6801225A700198FFF7F4
:10049000BDFF06E0019B01225A700199034800F05C
:1004A000BBFB00BF03B05DF804FB00BF5825001084
:1004B0001025001000B585B003460A46ADF8063099
:1004C00013468DF80530BDF80630002B19D0BDF865
:1004D00006304FF6FF72934207D00C4B1B68BDF8F5
:1004E00006201146184600F03DFC084B1B689DF89D
:1004F00005205A70064800F0D1FB03900398FFF7DF
:1005000085FF00BF05B05DF804FB00BF102500109B
:1005100058250010054B1B68002B01D1002302E079
:10052000024B1B68DB781846704700BF102500108F
:1005300000B585B001900B468DF80330019B002B70
:1005400022D12C4B1B689DF803209A70294B1B6805
:100550009DF8032083F8242000E000BF264B5B6851
:100560009B789DF803209A420CD2224B1B681946B7
:10057000214800F051FB1F4B1B6801225A700020DC
:10058000FFF766FF002331E01C4B1B881A46019BD6
:100590009A4206D3019B013B194A52F82330002BA3
:1005A00001D1FF2322E0019B013B154A52F8233081
:1005B0000393039B9DF803209A70039B9DF80320EF
:1005C00083F824200B4B1A68039B9A42C5D00398EA
:1005D00000F0A2FB039B5B78012B06D1064800F0DC
:1005E0005DFB03900398FFF733FF0023184605B027
:1005F0005DF804FB1025001058250010021A0100B8
:10060000B027001000B587B00390029101920093CB
:10061000029BDBB2002B02D1029B013302931A48EA
:1006200002F0FAF90590059B002B01D1002326E08A
:10063000059B019A1A63029B1A0A059B9A62FFF7AF
:100640007DFE0490049B002B01D1002317E0049B46
:10065000DAB2059BDA70059B009ADA61029BDBB285
:10066000039A19460598FFF787FE049B013B07494B
:10067000059A41F823200598FFF7EAFE049B1846E7
:1006800007B05DF804FB00BF982B0010B0270010E6
:1006900010B586B00190019B002B06D07B4B1B68E8
:1006A000DB781A46019B9A426AD1784B1B6800227C
:1006B0005A70764B1C68FFF774FD0346E36200F046
:1006C00067FA724B1B681B6A059336E0059B5B68F3
:1006D000002B24D0059800F0E1FA03900021039844
:1006E00002F0E2F8039800F033FC039B01225A70F9
:1006F0000399674800F090FA059BDB680293059B1D
:1007000001225A80059B039A9A60039B1A6A059BF3
:10071000DA60039B059A1A62029B05930DE0059B24
:10072000DB680293059B00225A80059B00229A6099
:10073000059B0022DA60029B0593059B002BC5D127
:10074000524B1B68DB78013B524A002142F82310D0
:100750004E4B1B681B6B19464F4802F079F94B4B07
:100760001B6800221A63494B1B6819464B4802F06C
:100770006FF9464B00221A600020FFF769FE80E007
:10078000474B1B881A46019B9A4206D3019B013BAB
:10079000404A52F82330002B01D1FF2372E0019B25
:1007A000013B3C4A52F823300493049800F0A2FB2A
:1007B000049800F0CDFB049B1B6A059336E0059B73
:1007C0005B68002B24D0059800F068FA03900021A4
:1007D000039802F069F8039800F0BAFB039B01222A
:1007E0005A7003992A4800F017FA059BDB680293B8
:1007F000059B01225A80059B039A9A60039B1A6A03
:10080000059BDA60039B059A1A62029B05930DE033
:10081000059BDB680293059B00225A80059B002202
:100820009A60059B0022DA60029B0593059B002BD2
:10083000C5D1019B013B174A002142F82310049BBC
:100840001B6B1946144802F003F9049B00221A633B
:100850000499124802F0FCF80D4B5B689A780B4B38
:100860001B689B789A420CD9084B1B6801225A706E
:10087000064B1B681946064800F0CEF90020FFF72A
:10088000E7FD0023184606B010BD00BF102500107C
:1008900058250010B0270010A0250010982B00103C
:1008A000021A010000B583B00023019307E02F4A2C
:1008B000019B002142F82310019B013301932C4B33
:1008C0001B881A46019B9A42F1D82A4B1B883C226E
:1008D0001946294802F04EF8284B1968284B1B6826
:1008E0009BB243F000431A46264802F043F8264BD9
:1008F0001868264B1B880822194602F03BF8244B47
:10090000FF22DA70224B00229A62224A00212048FC
:10091000FFF732FD204B04221A701F4B00225A6051
:100920001E4B04221A701D4B0022DA601B4B002262
:100930001A611A4B00229A82194B154A1A60184BF9
:100940001B6802225A701248FFF760FD154B002207
:100950001A70144B00225A70124B134A1278DA7034
:1009600001F0C6FF00BF03B05DF804FBB027001024
:10097000021A0100181A0100982B00101C1A01001D
:10098000041A0100A0250010180B0010401A0100E5
:10099000182500109D2A0000582500107025001011
:1009A00010250010EC270010201A010008B5FFF7F1
:1009B00089FC00F0BBF802460F4B1A600E4B1B6817
:1009C000002B17DB0C4B1B6803F1604303F56443FA
:1009D000FF221A70084B1B685B099B0003F1604300
:1009E00003F56143044A126802F01F02012101FA73
:1009F00002F21A6000BF08BD54250010084A094BD6
:100A00001B681360084B00221A60084B07221A600B
:100A1000074A074B1B6843F07F43136000BF7047D2
:100A200014E000E00C1A010018E000E010E000E023
:100A300020ED00E0074B1B78DBB2002B04D1064B06
:100A40004FF080521A6002E0044B01221A7000BF7E
:100A5000704700BFF40A001004ED00E0F50A001032
:100A600000B585B02D4B1B6801225A702B4B1B68BB
:100A7000184600F03FF92A4B5B7803933AE0284A86
:100A8000039BDB0013445B680293029B1B78002BE3
:100A90000AD1234A039BDB0013449B689BB219468F
:100AA000029802F0FBF810E0029B1B78012B09D1A1
:100AB0001B4A039BDB0013449B681946029800F015
:100AC0005FFC02E0029800F023FB039B01330393D9
:100AD000134BDB781A46039B934201D10023039307
:100AE000EFF31083019372B60E4B1A78013AD2B22B
:100AF0001A7062B60A4B9B78002BC0D1084B039A40
:100B0000D2B25A70084800F0C9F800900098FFF778
:100B10007DFC00BF05B05DF804FB00BF1025001090
:100B2000EC270010EE2700105825001008B5FFF73D
:100B300065FF4FF0FF33184608BD00BF00BF704788
:100B400000B583B00F4B1B6801225A700D4B1B6818
:100B5000184600F0CFF801F0D9FE0B4B1B680133AB
:100B6000094A136000F060F901F00EF9074800F03F
:100B700095F801900198FFF749FC00BF03B05DF8BC
:100B800004FB00BF10250010882500105825001018
:100B900008B50A4B1B68DB6A084A1268126B93425D
:100BA00006D3064B1B681B6B1B68054A934202D099
:100BB000012001F079FF00BF08BD00BF1025001023
:100BC000A52E5AE288B0039002910192EFF31083B0
:100BD000059372B6029B1B780793079A039B9A4270
:100BE00015D2079BDBB20133DAB2029B1A70019B6C
:100BF0001B780793079B01330693069A039B9A423F
:100C000001D100230693069BDAB2019B1A7062B6EB
:100C1000079B184608B0704786B0019000910023EA
:100C20000493019B1B78022B07D0019B1B78012B9F
:100C300003D0019B1B78032B01D101230493009B5C
:100C40009B780393019B5B68059304E0059B0193EC
:100C5000059B5B680593059B002B05D0059B9B7846
:100C60001A46039B9A42F1D2009B059A5A60019B57
:100C7000009A5A60049B002B09D0059B002B02D0E0
:100C8000059B009A9A60009B019A9A6002E0009B83
:100C900000229A6000BF06B0704700BF84B0019088
:100CA000019B5B680393039B5A68019B5A60019BFD
:100CB0001B78022B07D0019B1B78012B03D0019BD3
:100CC0001B78032B0ED1039B5B68002B06D0039B84
:100CD0005B68019A9A60039B00225A60039B002282
:100CE0009A6002E0039B00225A60039B184604B0FE
:100CF000704700BF82B00190064B5A68019B5A6052
:100D0000019B00229A60034A019B536000BF02B01E
:100D1000704700BF5825001000B585B00190019BB9
:100D20009B68002B06D1019B5B78012B14D10C4BE7
:100D300003930AE0019B9B68039302E0039B9B687B
:100D40000393039B1B78002BF8D0019800F0D2F896
:100D500001990398FFF760FF00BF05B05DF804FB41
:100D60005825001086B001900B46ADF80230BDF852
:100D7000023003932B4B0593059BDB68002B02D1BC
:100D80000023049307E0274B9B8A049321E0059BF3
:100D9000DB68002B14D1019B0022DA60059B019ACD
:100DA000DA60019B059A1A61039B9AB2049B9BB27D
:100DB000D31A9AB2059B9A82019B00229A822EE056
:100DC000059BDB680593059B9B8A1A46049B13448D
:100DD0000493049A039B9A42D9D3059BDA68019B3A
:100DE000DA60059B019ADA60019B059A1A61019B02
:100DF000DB68002B03D0019BDB68019A1A61049B1E
:100E00009AB2039B9BB2D31A9AB2019B9A82059B1A
:100E10009A8A019B9B8AD31A9AB2059B9A8206B042
:100E2000704700BF7025001000B583B02E4BDB6803
:100E3000002B54D02C4B9B8A013B9AB22A4B9A82AE
:100E400044E0294BDB680193019B9B68002B13D086
:100E5000019B9B68019A52685A60019B5B68002B5A
:100E600007D0019B5B68019A92689A60019B0022FF
:100E70005A60019B00229A6001991C48FFF7CCFE42
:100E8000019B9A8A184B9A82019B5B78042B08D1AC
:100E9000019BDA8A164B1B689BB213449AB2019BE2
:100EA0009A82019B01225A70019BDB680E4AD36033
:100EB000019BDB68002B06D0019BDB680A4A1A61A4
:100EC000019B0022DA60019B00221A61064B9B8A7B
:100ED000002B05D1044BDB68002BB2D100E000BF32
:100EE00003B05DF804FB00BF70250010582500100A
:100EF0008825001084B00190019B9B68002B0ED0C8
:100F0000019B9B68019A52685A60019B5B68002BA9
:100F100019D0019B5B68019A92689A6013E00B4BB1
:100F200003930CE0039B5A68019B9A4204D1019BF6
:100F30005A68039B5A6007E0039B5B680393039B1B
:100F4000002BEFD100E000BF04B07047582500101F
:100F500084B00190019B1B690393039B002B1DD060
:100F6000019BDA68039BDA60019BDB68002B0FD0E2
:100F7000039B9A8A019B9B8A13449AB2039B9A8291
:100F8000019BDB68039A1A61019B0022DA6002E090
:100F9000039B00229A82019B00221A6100BF04B0C9
:100FA000704700BF00B585B001900091114BDB7810
:100FB0001846114B0F4A1946FFF704FE03900D4BDC
:100FC000DB781A46039B9A420CD90A4A039BDB0042
:100FD0001344019A5A60074A039BDB001344009AAA
:100FE0009A6002E0022001F05FFD00BF05B05DF8ED
:100FF00004FB00BFEC270010EE27001084B0019026
:101000000B46ADF80230019B0393039B02221A703A
:10101000039B00225A60039BBDF802205A8000BF48
:1010200004B0704700B585B00190019B039311E0B7
:101030000398FFF733FE02900021029801F034FC80
:101040000298FFF785FF029B01225A70029914480B
:10105000FFF7E2FD039B5B68002BE9D1104B5B6857
:10106000002B14D00E4B5B689A780E4B1B689B7854
:101070009A420CD90B4B1B6819460948FFF7CCFD67
:10108000084B1B6801225A700020FFF7E1F9039B0F
:1010900000221A700023184605B05DF804FB00BF5B
:1010A000582500101025001000B585B00190019B57
:1010B0000393039B5B68002B0ED00398FFF7EEFDB4
:1010C00002900121029801F0EFFB0298FFF740FF28
:1010D0000298FFF7BDF905E0039B5B8801339AB2E4
:1010E000039B5A800023184605B05DF804FB00BF3F
:1010F00000B585B00190019B039300210398FFF791
:1011000051FFFFF797FC00BF05B05DF804FB00BF7F
:1011100000B585B00190019B5B68002B12D001984F
:10112000FFF7BCFD03900398FFF712FF039B01221A
:101130005A700121039801F0B7FB03990648FFF7A5
:101140006BFD05E0019B5B8801339AB2019B5A80DD
:1011500000BF05B05DF804FB5825001084B0019075
:101160000B46ADF80230019B0393039B01221A70DA
:10117000039B00225A70039B00229A70039B00225B
:101180005A60039B00221A81039B00225A81039B11
:1011900000229A81BDF80230103B9B089AB2039B53
:1011A000DA8100BF04B0704700B589B003900291A6
:1011B0001346ADF80630039B0793079B9B89002BD2
:1011C00053D0079B5B891A46079B043253F82220B1
:1011D000029B1A60079B5B8901339AB2079B5A8175
:1011E000079B5A89079BDB899A4202D1079B002201
:1011F0005A81079B5B68002B2AD0079B5B78022BE8
:1012000026D10798FFF74AFD06900021069801F0C5
:101210004BFB079B1B891A46069BD969079B043227
:1012200043F82210079B1B8901339AB2079B1A814E
:10123000079B1A89079BDB899A4202D1079B0022F0
:101240001A810698FFF784FE0698FFF701F90AE075
:10125000EFF31083059372B6079B9B89013B9AB20B
:10126000079B9A8162B6002326E0BDF80630002B6A
:1012700001D1012320E0079B5B68002B06D0104BB7
:101280001B6819460798FFF7C7FC0EE00C4B1A685D
:10129000079B5A600A4B1B6800225A60084B1B6868
:1012A000079A9A60079B01225A70BDF80630082100
:1012B0001846FFF7FFF80123184609B05DF804FB54
:1012C0001025001084B00190019B0393039BDB89E0
:1012D0001A46039B9B89D31A184604B0704700BF77
:1012E00000B585B001900091019B0393009B1946C6
:1012F0000398FFF757FEFFF79DFB00BF05B05DF8B1
:1013000004FB00BF00B585B001900091019B0393E1
:10131000039B9B89002B2ED0039B5B891A46039B62
:10132000043253F82220009B1A60039B5B78022B47
:1013300005D100210398FFF735FEFFF77BFBEFF3A4
:101340001083029372B6039B9B89013B9AB2039B65
:101350009A8162B6039B5B8901339AB2039B5A81DF
:10136000039B5A89039BDB899A4202D1039B00228B
:101370005A81042300E00023184605B05DF804FB01
:1013800000B587B001900091019B5B68002B6FD086
:10139000019B5B78022B20D0032B02D0012B52D073
:1013A00094E0009801F038FB0590059B002B00F0BD
:1013B0008C800198FFF772FC0490059B19460498F5
:1013C00001F072FA049B01225A700498FFF7C0FDE5
:1013D00004994048FFF720FC78E00198FFF75EFC95
:1013E00004900021049801F05FFA019B1B891A46C2
:1013F000049BD969019B043243F82210EFF3108358
:10140000039372B6019B9B8901339AB2019B9A8127
:1014100062B6019B1B8901339AB2019B1A81019B21
:101420001A89019BDB899A4202D1019B00221A8111
:10143000049B01225A700498FFF78AFD04992548FD
:10144000FFF7EAFB42E00198FFF728FC0490009BBD
:101450001A461021049801F037FA049B01225A70B1
:101460000498FFF775FD04991A48FFF7D5FB2DE0A6
:10147000019B9A89019BDB899A4222D2019B1B899D
:101480001A46019B0432009943F82210EFF31083AF
:10149000029372B6019B9B8901339AB2019B9A8198
:1014A00062B6019B1B8901339AB2019B1A81019B91
:1014B0001A89019BDB899A4208D1019B00221A817B
:1014C00004E0032001F0F0FA00E000BF00BF07B025
:1014D0005DF804FB5825001084B00190019B002B9F
:1014E00001D1002325E0019BB3F1FF3F02D14FF66C
:1014F000FF731EE0019B104A934202D94FF6FE7320
:1015000017E0019B4FF47A7202FB03F20B4B1B684E
:1015100013445A1E094B1B68B2FBF3F30393039B5E
:101520004FF6FE72934202D94FF6FE7301E0039B21
:101530009BB2184604B0704700093D00141A010020
:1015400084B00190019B002B01D100230FE0019B8F
:1015500003F00303002B01D0002308E0019B039359
:10156000039B1B78002B01D0002300E0039B18464F
:1015700004B0704782B00190019B03F00303002B7D
:1015800001D0002300E0019B184602B0704700BF65
:1015900008B5144B1B78002B01D1FFF783F9124BD0
:1015A0001B68FF229A700F4B1B78002B0ED1002175
:1015B0000E4800F0CDFF02460D4B1A6000220021BC
:1015C0000C4800F017F902460B4B1A60002000F09F
:1015D0000BF9044B01221A70084B00221A700023E9
:1015E000184608BD8C25001010250010381A01007F
:1015F00070280010241A0100282F00108D250010DB
:1016000000B583B0174B1B78002B01D0002325E0D9
:10161000154B1B6893F8243019460020FEF788FF0D
:10162000114B1B68DB78FF2B07D10F4B1B68DB6A64
:1016300020330193019B83F309880B4B5B68002BDC
:1016400006D1094B1B68084A5360074B00221A60F9
:10165000FFF7ACF9034B01221A700023184603B0C0
:101660005DF804FB8D25001010250010014B1B7840
:10167000184670478D25001010B582B0EFF3058431
:101680000094009C002C01D0822310E0EFF314841E
:101690000194019C04F00104002C03D1FFF778FFB2
:1016A000034604E0DFF80CC000DF034600BF184625
:1016B00002B010BD9115000010B58EB0EFF3058398
:1016C0000893089B002B01D0822363E000F06CF8A4
:1016D0000446002C0CD1314C2468002C08D02F4C2F
:1016E00024686468002C03D02C4C24686468A047EC
:1016F000EFF314840D940D9C04F00304032C44D8E0
:101700000FF2040E5EF824F01917000051170000C4
:1017100055170000751700006C4620340C940C9C83
:1017200084F309881E4C247804F00104002C05D0B1
:1017300002240B940B9C84F3148804E003240A9481
:101740000A9C84F31488BFF34F8FBFF36F8F1CE0A4
:10175000FF231FE0124C247804F00104002C11D167
:1017600003240994099C84F31488BFF34F8FBFF3BB
:101770006F8F07E00A4C247804F00104002C03D09A
:10178000FF2307E000BF00E000BFDFF818C000DF64
:10179000034600BF18460EB010BD00BF0C25001058
:1017A000101A01000116000010B582B0EFF3058495
:1017B0000094009C002C07D1EFF314840194019C49
:1017C00004F00104002C02D1054B1B7804E0DFF883
:1017D00014C000DF034600BF184602B010BD00BFB2
:1017E0008D2500106D16000082B0019000BF02B080
:1017F000704700BF00B589B0039002910192039B2E
:10180000002B0ED0039B1B68002B0AD0039BB3F95F
:10181000043013F1030F04DB039BB3F90430032BF3
:1018200004DD8020FFF7E0FF002347E0039BDB6837
:10183000002B03D0039B1B69079301E00023079350
:10184000039B1868039BB3F9043004331A46039BC7
:10185000DB681B0242EA0301029B079AFEF7D2FEF5
:101860000690069B002B04D18520FFF7BDFF0023C7
:1018700024E0069B013B134A52F823300593059B55
:10188000DB6A34331A46104B1360104B1B68002B75
:1018900010D00E4B1B689B68002B0BD00B4B1B68AA
:1018A0009B68059AD2780199104698470246059B95
:1018B0009A6302E0059B019A9A63059B184609B05A
:1018C0005DF804FBB0270010151A00000C2500106D
:1018D00000B583B0FEF71EFE0190019B002B01D1E5
:1018E000002304E0019B013B034A52F823301846D1
:1018F00003B05DF804FB00BFB027001000B585B051
:1019000001900198FFF71CFE0390039B002B01D16F
:1019100080231BE00F4B1B68002B0BD00D4B1B686B
:10192000DB68002B06D00B4B1B68DB68039A926BBD
:1019300010469847039BDB781846FEF7A9FE0290F5
:10194000029BFF2B01D1812300E00023184605B044
:101950005DF804FB0C25001000B583B001900091E8
:1019600000220099019800F005F80346184603B0DC
:101970005DF804FB00B58BB0039002910192EFF388
:1019800005820792079A002A01D0002320E0EFF396
:1019900014820992099A02F00102002A0AD10E4A21
:1019A0001278002A06D1019A02990398FFF722FFC4
:1019B00003460DE0039A0892029A0692019A059254
:1019C00008980699059ADFF814C000DF034600BFA7
:1019D00018460BB05DF804FB8D250010F5170000CC
:1019E00000B585B00190EFF30580029002980028C1
:1019F00001D0822307E0019803900398DFF810C01C
:101A000000DF034600BF184605B05DF804FB000088
:101A1000FD18000000B583B0DFF810C000DF0190B2
:101A20000198DFF80CC000DFFEE70000D1180000CD
:101A3000FD18000084B001900091002302931A4B1E
:101A40001B6803930EE0039B9A68009B9A420DD893
:101A5000039B9B68009AD31A0093039B0293039BFA
:101A60001B680393039B002BEDD100E000BF019B9B
:101A7000039A1A60019B009A9A60039B002B06D080
:101A8000039B9A68019B9B68D21A039B9A60029BF6
:101A9000002B03D0029B019A1A6002E0024A019BCC
:101AA000136000BF04B070479025001084B001900F
:101AB000002302931A4B1B68039308E0039A019BCF
:101AC0009A4208D0039B0293039B1B680393039BDA
:101AD000002BF3D100E000BF039B002B02D14FF09D
:101AE000FF3319E0029B002B04D0019B1A68029B74
:101AF0001A6003E0019B1B68094A1360019B1B6885
:101B0000002B08D0019B1B68019A12689168019A0A
:101B100092680A449A600023184604B0704700BFD8
:101B20009025001000B587B003900B4601928DF808
:101B30000B30039B002B03D0039B1B68002B04D1AD
:101B40008020FFF751FE00233AE0039B5B6805937A
:101B5000059B002B04D18020FFF746FE00232FE0D9
:101B60009DF80B30002B08D09DF80B30012B04D0D2
:101B70008620FFF739FE002322E0134B1B68002B61
:101B800004D18120FFF730FE002319E0059B1B796B
:101B9000002B04D08120FFF727FE002310E0059BD7
:101BA00000221A60059B01221A71059B9DF80B20EB
:101BB0005A71059B019A1A61059B039A5A61059B0C
:101BC000184607B05DF804FB282F00102DE9F043FC
:101BD00085B0019000910198FFF7CCFC0390039B26
:101BE000002B01D1802357E0009B002B01D18623DD
:101BF00052E0009B18464FF0000102460B464FEAA8
:101C0000830949EA92794FEA820842464B465D01D0
:101C100045EAD2655401A41A65EB0305241845EB87
:101C20000105EF0047EA5477E60034463D46214679
:101C30002A461B4B1B684FF000045B1844EB020460
:101C400013F1FF3044F1FF31154B1B684FF00004D6
:101C50001A4623460EF0F4FE03460C460293039BFD
:101C60001B79012B09D0022B0ED10398FFF71EFF21
:101C70000346002B0AD081230EE0039B02221A7137
:101C8000039B029ADA6002E0812305E000BF02991B
:101C90000398FFF7CFFE0023184605B0BDE8F08398
:101CA000141A010000B585B001900198FFF762FC9D
:101CB0000390039B002B01D1802311E0039B1B7930
:101CC000022B01D081230BE0039B01221A710398A0
:101CD000FFF7ECFE0346002B01D0812300E0002338
:101CE000184605B05DF804FB00B585B00190019879
:101CF000FFF740FC0390039B002B01D1802310E0F1
:101D0000039B1B79012B07D0022B03D10398FFF70C
:101D1000CDFE02E0812304E000BF039B00221A7184
:101D20000023184605B05DF804FB00BF10B586B06F
:101D300001900198FFF71EFC0590059B002B0ED12A
:101D40000023039300230493039B1946049B1A4624
:101D50004FF000034FF000040B46144610E0059BC3
:101D60005B691B680393059B1B690493039B1946DE
:101D7000049B1A464FF000034FF000040B46144634
:101D80001846214606B010BD00B585B01D4B1B6836
:101D90000393039B002B31D0039B9B685A1E039B2C
:101DA0009A6023E0039B0293039B1B680393154AED
:101DB000039B1360144B1B6802990022184600F025
:101DC00059FC0190019B002B02D0042000F06CFE16
:101DD000029B5B79012B06D1029BDB6819460298B6
:101DE000FFF728FE02E0029B01221A71039B002BE1
:101DF00005D0039B9B68002BD4D000E000BF05B04A
:101E00005DF804FB902500107028001000B58BB021
:101E1000039001920A468DF80B20EFF3058207929A
:101E2000079A002A01D0002325E0EFF314820992DB
:101E3000099A02F00102002A0CD1114A1278002AF4
:101E400008D19DF80B30019A19460398FFF76AFEF6
:101E5000034610E0039A08929DF80B208DF81B2092
:101E6000019A059208989DF81B10059ADFF814C096
:101E700000DF034600BF18460BB05DF804FB00BF4F
:101E80008D250010251B000000B587B00190009142
:101E9000EFF3058104910499002901D082230AE01F
:101EA000019905910099039105980399DFF810C0F5
:101EB00000DF034600BF184607B05DF804FB0000D2
:101EC000CD1B000000B585B00190EFF305800290B6
:101ED0000298002801D0822307E00198039003981C
:101EE000DFF810C000DF034600BF184605B05DF8FC
:101EF00004FB0000A51C000000B585B00190EFF3C5
:101F0000058002900298002801D0822307E0019802
:101F100003900398DFF810C000DF034600BF1846A7
:101F200005B05DF804FB0000E91C000000B585B0B9
:101F300001900091009803900398DFF81CC000DF27
:101F40000B461A46019B1860019B5A6000BF01981E
:101F500005B05DF804FB00002D1D000000B589B040
:101F600001900C4B196803AB4FF0FF32184600F09C
:101F7000EBFB039B102BF4D1049A06AB11461846D9
:101F8000FFF7D4FF069B002BEBD0069B079A104669
:101F90009847E6E77028001000B585B001900091E1
:101FA0000198FFF7CDFA0390039B002B02D14FF06D
:101FB000004313E0009B1B0C1B04002B02D04FF0CE
:101FC00000430BE0039B1B8B0293009B9AB2039B85
:101FD000DB781946104600F041FE029B184605B01A
:101FE0005DF804FB2DE9F04786B001900091019B5C
:101FF0001B0C1B04002B0CD086230293029A002397
:1020000000240025002613461F46A046A946B246D6
:102010003EE0019B002B0CD0019B9CB20098FFF787
:102020005BFA034601221946204600F0B3FD0590F5
:102030000AE00098FFF750FA0346002219464FF6CF
:10204000FF7000F0A7FD0590059B022B0BD1082324
:102050000293019B002B03D1134B1B685B8B00E0A9
:10206000019B039308E0009B002B01D0402300E07C
:1020700000230293002303930299039A0023002470
:10208000002500260B4614461F46A046A946B24628
:102090003B4644464D465646184621462A46334658
:1020A00006B0BDE8F08700BF1025001000B587B06E
:1020B00001900091EFF3058104910499002902D069
:1020C0004FF000430AE001990591009903910598AA
:1020D0000399DFF810C000DF034600BF184607B0C1
:1020E0005DF804FB991F000010B58AB003900291BF
:1020F0000192EFF3058108910899002909D0822304
:102100000493039B1C4604AB93E8070084E8070094
:1021100013E0029909910199079109980799DFF84D
:1021200020C000DF0346184613461A46039B18607A
:10213000039B5960039B9A6000BF03980AB010BDCF
:10214000E51F000000B585B00190019B002B04D174
:102150008020FFF749FB002317E0019B1B680393D6
:10216000039B002B04D18020FFF73EFB00230CE0F3
:10217000039B1B78002B04D08020FFF735FB002346
:1021800003E0039800F0E4FD039B184605B05DF8FA
:1021900004FB00BF00B585B0019000910198FFF7E6
:1021A000E9F90390039B002B01D1802319E0039BE5
:1021B0001B78032B01D0802313E00098FFF78CF9E4
:1021C00003461946039800F02BFF0290029B012B57
:1021D00006D1009B002B01D0C12302E0812300E047
:1021E0000023184605B05DF804FB00BF00B585B0BC
:1021F00001900198FFF7BEF90390039B002B01D1DA
:1022000080230FE0039B1B78032B01D0802309E080
:10221000039800F049FE0290029BFF2B01D181231D
:1022200000E00023184605B05DF804FB00B585B05A
:1022300001900198FFF79EF90390039B002B01D1B9
:10224000802309E0039B1B78032B01D0802303E04C
:10225000039800F093FD0023184605B05DF804FBD9
:1022600000B587B00190EFF3058003900398002834
:1022700001D0002318E0EFF314800590059800F0DA
:102280000100002808D10A480078002804D10198EC
:10229000FFF758FF034607E0019804900498DFF821
:1022A00014C000DF034600BF184607B05DF804FB0A
:1022B0008D2500104521000000B587B001900091E8
:1022C000EFF3058104910499002901D082230AE0EB
:1022D000019905910099039105980399DFF810C0C1
:1022E00000DF034600BF184607B05DF804FB00009E
:1022F0009521000000B585B00190EFF305800290B4
:102300000298002801D0822307E0019803900398E7
:10231000DFF810C000DF034600BF184605B05DF8C7
:1023200004FB0000ED21000000B585B00190EFF343
:10233000058002900298002801D0822307E00198CE
:1023400003900398DFF810C000DF034600BF184673
:1023500005B05DF804FB00002D22000000B585B03B
:1023600001900091019B002B04D18020FFF73CFAE3
:10237000002323E0019B1B680393039B002B04D1E4
:102380008020FFF731FA002318E0039B1B78002B15
:1023900004D08020FFF728FA00230FE0009BB3F55C
:1023A000803F04DB8620FFF71FFA002306E0009B36
:1023B0009BB219460398FEF721FE039B184605B011
:1023C0005DF804FB00B585B001900198FFF7D2F8E5
:1023D0000390039B002B01D1802311E0039B1B780A
:1023E000022B01D080230BE0039B5B884FF6FF722A
:1023F000934201D1812303E00398FEF755FE0023A9
:10240000184605B05DF804FB00B585B00190019851
:10241000FFF7B0F80390039B002B01D1802309E064
:10242000039B1B78022B01D0802303E00398FEF767
:10243000F9FD0023184605B05DF804FB00B585B032
:1024400001900198FFF796F80390039B002B01D1B0
:10245000802311E0039B1B78022B01D080230BE02B
:10246000039B5B884FF6FF72934201D1812303E007
:102470000398FEF73DFE0023184605B05DF804FB07
:1024800000B587B001900091EFF3058103910399A6
:10249000002901D000231CE0EFF314810591059978
:1024A00001F00101002909D10C490978002905D161
:1024B00000990198FFF752FF03460AE00199049141
:1024C0000099029104980299DFF814C000DF0346D6
:1024D00000BF184607B05DF804FB00BF8D25001053
:1024E0005D23000000B585B00190EFF305800290F8
:1024F0000298002804D00198FFF7A0FF034607E0E8
:10250000019803900398DFF810C000DF034600BF76
:10251000184605B05DF804FBC523000000B585B082
:102520000190EFF3058002900298002801D08223E9
:1025300007E0019803900398DFF810C000DF03461E
:1025400000BF184605B05DF804FB00000924000038
:1025500000B583B001900091019B002B07D0019B37
:102560001B68002B03D0019B5B68002B04D18020EB
:10257000FFF73AF9002317E0019B5B681B78002BFB
:1025800004D08020FFF730F900230DE0019B5A684A
:10259000019B1B6804339BB29B009BB219461046FB
:1025A000FEF7DCFD019B5B68184603B05DF804FB99
:1025B0002DE9F04786B001900091019B002B0CD1D2
:1025C00080230293029A002300240025002613464C
:1025D0001F46A046A946B24641E0019B1B78012B4D
:1025E0000CD080230293029A0023002400250026A9
:1025F00013461F46A046A946B24630E00098FEF7B3
:102600006BFF03461A4602AB043319460198FEF7E6
:10261000CBFD0590059B012B13D1009B002B01D016
:10262000402300E0002302930299039A0023002430
:10263000002500260B4614461F46A046A946B24672
:102640000DE0102302930299039A00230024002531
:1026500000260B4614461F46A046A946B2463B46F6
:1026600044464D465646184621462A46334606B04D
:10267000BDE8F08700B585B0039002910192039BFD
:10268000002B02D0019B002B01D0802313E0039B81
:102690001B78012B01D080230DE00398FEF712FE7A
:1026A0000346002B01D1812305E0029B19460398C4
:1026B000FEF716FE0023184605B05DF804FB00BFC8
:1026C00010B588B0039002910192029B002B02D0BA
:1026D000019B002B09D080230493039B1C4604AB71
:1026E00093E8070084E807002AE0029B1B78012B8F
:1026F00009D080230493039B1C4604AB93E8070096
:1027000084E807001CE004AB043319460298FEF786
:10271000F9FD0790079B042B09D000230493039B2A
:102720001C4604AB93E8070084E8070008E0102388
:102730000493039B1C4604AB93E8070084E807005E
:10274000039808B010BD00BF00B589B00390029196
:102750000192EFF3058106910699002906D0039BAB
:10276000019A02991846FFF7ABFF13E0029907910F
:102770000199059107980599DFF820C000DF03460D
:10278000184613461A46039B1860039B5960039B27
:102790009A6000BF039809B05DF804FBB125000002
:1027A00086B001900091019B9B6A9B080393039B59
:1027B000002B05D1364B1B689BB29B089BB2039341
:1027C000019B1A6B039B9B0013440593059B03F02D
:1027D0000403002B02D0059B043B0593059B403B63
:1027E0000593059B3C334FF080721A60059B38338C
:1027F000009A1A600023049308E0049B9B00059A4A
:10280000134400221A60049B01330493049B0D2B94
:10281000F3D9059B2033019AD2691A60059A019B6E
:10282000DA62019B009A5A63194B1B6803F08053CC
:10283000002B26D0039B112B23D9039B103B5B0855
:10284000013B04930EE0059B083B0593059B043375
:102850004FF0CC321A60059B4FF0CC321A60049BCB
:10286000013B0493049B002BEDD1059B043B059396
:10287000019B1B6B059A9A4203D9059B4FF0CC3202
:102880001A60019B1B6B034A1A6000BF06B07047B9
:10289000041A0100A52E5AE282B00190019BDB6A66
:1028A0002033184602B0704700B585B00190009102
:1028B0000198FFF7F1FF0390039B009A1A6000BF95
:1028C00005B05DF804FB00BF00B587B0039002912E
:1028D00001920398FFF7E0FF0590059B029A1A60AA
:1028E000059B0433019A1A6000BF07B05DF804FB32
:1028F000044B00221A60044B1B689AB2014BDA8029
:1029000000BF704794250010081A010000B583B07D
:10291000154B1A68154B5B689A420ED0134B5B68D7
:10292000114A1360124B1B689AB20F4BDB88134499
:102930009BB2013B9AB20C4B9A800B4B9A880C4B82
:102940001B689BB29A420AD1074B00221A600748C3
:10295000FEF7A4F9019001990448FEF75DF900BF64
:1029600003B05DF804FB00BF94250010582500104B
:102970008825001088B0039002910192019B002BE2
:1029800009DA019B23F00043073323F00703019387
:102990001023069306E0019B033323F00303019306
:1029A0000C230693019B002B01D1012330E0019AF7
:1029B000069B1A44029B9A4201D9012328E0039AFC
:1029C000069B13440793039B079A1A60039A029B82
:1029D00013440593039B059A5A60039B019A9A60DE
:1029E000019B5B42059A13440593079A019B13448C
:1029F0000493049A059B9A4205D8079B049A1A608F
:102A0000049B0793F1E700BF079B00221A60002395
:102A1000184608B0704700BF86B00190EFF31083EE
:102A2000039372B6039B03F001030593019B1B689C
:102A30000493049B002B03D0049B1A68019B1A602B
:102A4000059B002B00D162B6049B184606B0704768
:102A500084B001900091009A019B9A4204D3019B9B
:102A60005A68009B9A4201D8012313E0EFF31083C8
:102A7000029372B6029B03F001030393019B1A6851
:102A8000009B1A60019B009A1A60039B002B00D1E7
:102A900062B60023184604B0704700BF08B500F0C6
:102AA00027FB00BF08BD00BF00B585B00190FEF751
:102AB0000FFF0390039A0199034803F0C1FC00BF84
:102AC00005B05DF804FB00BFA4190100F0B4094A89
:102AD000094FC2F18053094903F5F843084D094CE9
:102AE0004FF480609E183A6008602E602360F0BC4E
:102AF000704700BF382F0010C4230010301B001097
:102B00002C1B0010C022001008B50D48FFF7A8FBD1
:102B10000C4B18600C48FFF7A3FB0C4B18600C48DB
:102B2000FFF79EFB0B4B18600B4803F05DFD04F0B4
:102B30001BFBBDE808400021084602F027BB00BF90
:102B4000441A010074280010481A0100441B0010A8
:102B50004C1A0100581B0010156A0000FEF78CFD8E
:102B6000FFF7B4FF03480021FEF7F6FEFEF7A4FDD1
:102B7000FEE70000CC000010024B4FF0FF31186858
:102B8000FFF79ABB441B0010014B1868FFF7B2BB5C
:102B9000441B001000B585B003460092ADF8063026
:102BA0000B46ADF80430009B002B1DD02A4B1B6850
:102BB0001A8BBDF8063013409BB2BDF806209A422E
:102BC0000FD1254B1B68244A1268128B11B2BDF934
:102BD0000620D24312B20A4012B292B21A830223E2
:102BE00035E00623039324E01B4B1B681A8BBDF8CA
:102BF000063013409BB2002B19D0174B1B68164AA6
:102C00001268118BBDF806200A4092B25A83124B0B
:102C10001B68114A1268128B11B2BDF90620D2430B
:102C200012B20A4012B292B21A8302230FE00523B5
:102C30000393094B1B68BDF806205A83039BDAB245
:102C4000BDF8043011461846FDF734FC0123184640
:102C500005B05DF804FB00BF1025001084B00346EA
:102C60000091ADF80630009B013B0B4A52F823302F
:102C70000393039B002B0CD0039B1B8B1AB2BDF953
:102C80000630DB431BB213401BB29AB2039B1A837C
:102C900000E000BF04B07047B027001000B585B059
:102CA00001900B46ADF80230019B1A8BBDF8023043
:102CB00013439AB2019B1A83019B5B8BADF80E30D4
:102CC000019B5B78062B09D1019B1A8BBDF80E3056
:102CD00013409BB2BDF80E209A4214D0019B5B7842
:102CE000052B2ED1019B1A8BBDF80E3013409BB2E1
:102CF000002B26D0019B5A8B019B1B8B13409AB251
:102D0000019B5A8300E000BF019B1B8B1AB2BDF9E7
:102D10000E30DB431BB213401BB29AB2019B1A83E5
:102D20000198FEF715F9019B01225A70019B5B8BFC
:102D30001A4608210198FFF7C7FD01990348FDF7DE
:102D40006BFF00BF05B05DF804FB00BF5825001005
:102D500084B00190019B0393039B03221A70039B91
:102D600000225A80039B00225A60039B00229A6033
:102D7000039B0022DA6000BF04B0704700B587B043
:102D80000190019B0393039B5B88002B62D0039B04
:102D90009B680293029B1B6A0593059A039B9A42C8
:102DA00011D1039BDA68029B1A620FE0059BDA6877
:102DB000039B9A4204D1039BDA68059BDA6005E025
:102DC000059BDB680593059B002BEFD1029B93F8D5
:102DD00024308DF81330029B1B6A059312E0059B8B
:102DE0005B68002B0BD0059B5B689B789DF81320DC
:102DF0009A4204D2059B5B689B788DF81330059B43
:102E0000DB680593059B002BE9D1029B9B789DF81D
:102E100013209A421ED0029B9DF813209A70204BDB
:102E20001A68029B9A4215D00298FDF775FF11E0CF
:102E30000398FDF733FF029000210298FFF734FD5D
:102E40000298FEF785F8029B01225A7002991548F4
:102E5000FDF7E2FE039B5B68002BE9D1114B5B6839
:102E6000002B14D00F4B5B689A780D4B1B689B7836
:102E70009A420CD90A4B1B6819460A48FDF7CCFE4A
:102E8000074B1B6801225A700020FDF7E1FA039BF3
:102E900000221A700023184607B05DF804FB00BF3B
:102EA000102500105825001000B587B00190019B37
:102EB0000393039B5B88002B05D0039B9A68564BBA
:102EC0001B689A4201D0FF23A2E0039B5B88013B71
:102ED0009AB2039B5A80039B5B88002B01D000238E
:102EE00096E04D4B1B681B6A0593059A039B9A421B
:102EF00012D1494B1B68039AD2681A620FE0059BF6
:102F0000DA68039B9A4204D1039BDA68059BDA6076
:102F100005E0059BDB680593059B002BEFD13E4B3D
:102F20001B6893F824308DF813303B4B1B681B6AE9
:102F3000059312E0059B5B68002B0BD0059B5B683B
:102F40009B789DF813209A4204D2059B5B689B787E
:102F50008DF81330059BDB680593059B002BE9D1A9
:102F60002D4B1B689DF813209A70039B5B68002B08
:102F700038D00398FDF792FE029000210298FFF7E7
:102F800093FC0298FDF7E4FF039B01225A80039B08
:102F9000029A9A60029B1A6A039BDA60029B039A68
:102FA0001A621D4B1B689A781C4B5B689B789A428F
:102FB00003D30298FDF74CFA29E0174B1B6819461A
:102FC0001648FDF729FE02991448FDF725FE124B1D
:102FD0001B6801225A70029B01225A700020FDF7E3
:102FE00037FA14E00D4B5B689A780B4B1B689B78A3
:102FF0009A420CD9084B1B6819460848FDF70CFE8D
:10300000054B1B6801225A700020FDF721FA0023AE
:10301000184607B05DF804FB102500105825001075
:1030200000B585B001900B46ADF80230019B0393CB
:10303000039B5B88002B0DD12B4B1A68039B9A6076
:10304000294B1B681A6A039BDA60274B1B68039A9B
:103050001A6205E0039B9A68234B1B689A4207D1CA
:10306000039B5B8801339AB2039B5A80002336E0AE
:10307000BDF80230002B01D1012330E0039B9B6897
:103080009A78194B1B689B789A420AD2039B9B68DB
:10309000154A126892789A70039B9B681846FDF750
:1030A0003BFE039B5B68002B06D00F4B1B68194649
:1030B0000398FDF7B1FD0BE00B4B1A68039B5A60B8
:1030C000094B1B6800225A60074B1B68039A9A60E1
:1030D000BDF8023009211846FDF7ECF90123184626
:1030E00005B05DF804FB00BF1025001000BF70475D
:1030F00008B5024B1B689847FBE700BFE0000010D3
:1031000082B001900091009B184602B0704700BF4A
:1031100000B585B00390019200930B46ADF80A30DC
:103120000F4A039B1A60039B04330021184600F0EA
:1031300051F8039B30330021184601F01FF9039B1F
:103140004033184601F054F9BDF90A10009B019A6A
:10315000039800F011FF039B184605B05DF804FBCF
:10316000FC1C010000B589B000F07AFD124803F0A4
:1031700016F8124800F0CCFD6B461149184600F0D5
:1031800029F86B4619460F4800F016FF6B461846A3
:1031900000F036F804AB0C49184600F01BF804ABFD
:1031A00019460A4800F008FF04AB184600F028F85A
:1031B000074800F0ADFDFEE7AC210010501A0100F9
:1031C000A93800006C1D0010C1350000C41D00109E
:1031D000641A010000B583B001900091009B002BA0
:1031E00003D1019B0022DA6004E06B461946019886
:1031F00000F018F8019B184603B05DF804FB00BF0F
:1032000000B583B00190019BDB68002B04D0019BCB
:10321000DB689B6801989847019B184603B05DF8EE
:1032200004FB00BF00B583B0019000910C23042B78
:1032300005D240F2CE220B490B4803F09FF8019BC8
:1032400019460420FFF75CFF0346002B02D0009ACA
:1032500012681A60019B054ADA6000BF03B05DF88E
:1032600004FB00BF881A0100A41A0100D41A01004F
:1032700000B583B00190019B1B68984703B05DF8CF
:1032800004FB00BF00B583B001900091019B19467B
:103290000420FFF735FF0346002B02D0009A126886
:1032A0001A6000BF03B05DF804FB00BF82B001905C
:1032B00000BF02B0704700BF10B582B00190064C4D
:1032C000064B9C4205D0583C23681B682046984713
:1032D000F6E702B010BD00BFCC1E00105C1B001052
:1032E00070B582B001900091019B012B22D1009B0F
:1032F0004FF6FF7293421DD1104C092600234FF464
:10330000006200212046FFF703FF04F15805741EF8
:10331000B4F1FF3F09D000234FF40062002128469A
:10332000FFF7F6FE5835013CF2E7054A0549002053
:1033300001F06CFF00BF02B070BD00BF5C1B00104D
:10334000C8000010B932000008B54FF6FF71012027
:10335000FFF7C6FF08BD00BF00B589B0039002911A
:10336000009313468DF80730039B00211846FFF7A2
:1033700031FF04AB029A0099184600F067F99DF8F6
:10338000072004AB1946039800F092FF04AB1846DF
:10339000FFF736FF039B184609B05DF804FB00BF3A
:1033A00000B583B001900091019B1B68B3F1FF3F12
:1033B00004D124220A490B4802F0E0FF009B002BB5
:1033C00005D0019BDB68019A52681A6004E0019BFA
:1033D0001B69019A52681A6000BF03B05DF804FBD4
:1033E000E01A0100201B010000B583B00190019B91
:1033F0001B68B3F1FF3F04D12C220949094802F0B0
:10340000BDFF019B5B691A68019B5B681340002B41
:1034100001D0012300E00023184603B05DF804FB4F
:10342000E01A0100201B010000B583B0019000915B
:10343000019B00991846FFF7B3FF00BF03B05DF88A
:1034400004FB00BF00B583B00190019B1846FFF755
:10345000CBFF0346184603B05DF804FB00B583B00C
:103460000190009100990198FFF7DEFF019B18463B
:1034700003B05DF804FB00BF00B583B00190019874
:10348000FFF7E0FF0346184603B05DF804FB00BFFA
:1034900010B582B003468DF807309DF80730032B36
:1034A00006D99DF807301946114800F031FCFEE7B7
:1034B0009DF8072013465B001344DB000D4A9C185F
:1034C0009DF8072013465B001344DB00094A1344B0
:1034D0001846FFF7D1FF0346002B0CBF0123002342
:1034E000DBB219462046FFF7B9FF00BF02B010BD9E
:1034F000381B01004C21001008B5102000F090FB93
:103500000120FFF7C5FF024800F002FC00BF08BD24
:10351000481B010008B5082000F082FB0020FFF7DF
:10352000B7FF024800F0F4FB00BF08BD581B0100C4
:1035300000B583B0019000210448FFF78FFF0448D5
:1035400000F0F2FE00BF03B05DF804FB2C21001078
:10355000CC1E001000B583B0019000210448FFF795
:103560007DFF044800F0E0FE00BF03B05DF804FBFF
:1035700014210010001F001008B501210548FFF7B5
:103580006DFF0021044800F0BFFE0320FFF780FF1D
:1035900000BF08BD2C210010CC1E001008B5012171
:1035A0000548FFF75BFF0021044800F0ADFE022054
:1035B000FFF76EFF00BF08BD14210010001F0010B0
:1035C00000B591B008AB1D491846FFF703FE08ABE4
:1035D00019461B4802F092FC08AB1846FFF710FE94
:1035E0000CAB18491846FFF7F5FD0CAB1946164809
:1035F00002F084FC0CAB1846FFF702FE6B464FF05E
:10360000FF320021184600F08BFD05AB6A4607CA61
:1036100083E80700069B03F04003002B02D0FFF76E
:10362000ABFF06E0069B03F02003002B01D0FFF761
:10363000B5FF072000F030FBE0E700BFF9340000E1
:10364000CC200010153500008420001000B585B096
:10365000039002910192039B19461020FFF750FD41
:103660000346002B04D0029A0199184600F006F890
:10367000039B184605B05DF804FB00BF00B587B09A
:1036800003900291019204AB019A0299184600F04E
:103690000BF804AB1946039800F014F8039B184686
:1036A00007B05DF804FB00BF84B003900291019263
:1036B000039B029A1A60039B019A5A60039B184667
:1036C00004B0704700B583B0019000910C23082B23
:1036D00005D240F2CE220C490C4802F04FFE019B6D
:1036E00019460820FFF70CFD0346002B04D0009A72
:1036F00092E8030083E80300019B054ADA6000BFFB
:1037000003B05DF804FB00BF681B0100841B0100CF
:10371000B41B010000B583B00190019800F020F8BF
:1037200003B05DF804FB00BF00B583B001900091C9
:10373000019B19460820FFF7E3FC0346002B04D049
:10374000009A92E8030083E8030000BF03B05DF82D
:1037500004FB00BF82B0019000BF02B0704700BF01
:1037600000B583B00190019B1B68019A5268104616
:10377000984703B05DF804FB00B583B00190009159
:10378000019B012B1AD1009B4FF6FF72934215D17A
:10379000002301220B490C48FFF7DEFD0B4A0C49C0
:1037A000094801F033FD002301220A490A48FFF7C6
:1037B000D3FD064A0649084801F028FD00BF03B0C2
:1037C0005DF804FB31350000CC1E0010C80000106D
:1037D0004543000055350000001F001008B54FF6A6
:1037E000FF710120FFF7C8FF08BD00BF30B583B0EF
:1037F0000190274800F006FF00220021244800F035
:1038000017FF244B1B6818460CF042FA04460D467D
:10381000214B1B7818460CF04BFA02460B4620460B
:1038200029460CF0D5FB03460C46184621460CF001
:103830007DFD0346DBB21A461849154802F092FC9A
:10384000174B1B6818460CF023FA04460D46124B22
:103850001B7818460CF02CFA02460B4620462946E7
:103860000CF0B6FB03460C46184621460CF05EFDF4
:103870000346DBB21A460B49054802F073FC054BC0
:1038800000221A60064B00221A6000BF03B030BD50
:10389000341F00101C200010E4000010C01B0100A9
:1038A00020200010C81B010000B589B01E4B00226B
:1038B0001A601E4B00221A601D4B1B781A466423A7
:1038C00003FB02F319461B4800F01EFD6B464FF048
:1038D000FF320021184600F023FC05AB6A4607CAF8
:1038E00083E80700069B03F00803002B04D1069B26
:1038F00003F02003002B04D00B4B1B6801330A4A52
:103900001360069B03F01003002B04D1069B03F009
:103910004003002B04D0054B1B680133034A13609E
:10392000062000F0B9F9D1E71C200010202000107B
:10393000E4000010E81F001000B583B001900D4AAC
:10394000019B1A600C4A019B5A60019B4833184640
:1039500002F094F9019B184602F0F2FB0023002BC1
:1039600002D0019801F078FC019B184603B05DF885
:1039700004FB00BF341D0100701D0100A0F1040014
:10398000DAE700BF00B583B001900198FFF7D4FFDC
:10399000019801F061FC019B184603B05DF804FB3F
:1039A000A0F10400EEE700BF00B587B005900491D8
:1039B000059B012B22D1049B4FF6FF7293421DD130
:1039C000002303930F4B02930F4B01930F4B009374
:1039D0000F4B104A1049114800F068FD104A114978
:1039E0000E4801F013FC002301220F490F48FFF796
:1039F000B3FC0B4A0E490D4801F008FC00BF07B0AC
:103A00005DF804FB10C009200FC0092011C0092077
:103A100012C0092001C0092000C00920341F001075
:103A2000C800001039390000ED370000E81F001011
:103A30004543000008B54FF6FF710120FFF7B4FFC2
:103A400008BD00BF00B583B001900091019B1A46EC
:103A50000023136053609360D36013615361019B33
:103A60000099184602F00BFC019B184603B05DF864
:103A700004FB00BF08B5044B1B684FF0FF3118462C
:103A8000FEF71AFC00BF08BD7428001008B5034BF0
:103A90001B681846FEF72EFC00BF08BD74280010F6
:103AA00000B583B001900091094A019B1A6001980A
:103AB00000F050F8019B04330099184600F020FFF5
:103AC000019800F059F8019B184603B05DF804FB1B
:103AD000681C010000B585B00190019B1B6808338C
:103AE0001B6801989847019B0433184600F04EFF6D
:103AF0000346ADF80E30019B1B680C331B68019820
:103B00009847BDF80E30184605B05DF804FB00BFBD
:103B100000B583B00190074A019B1A600023002B77
:103B200002D0019801F098FB019B184603B05DF8A4
:103B300004FB00BF681C010000B583B00190019830
:103B4000FFF7E6FF019801F087FB019B184603B0E1
:103B50005DF804FB00B583B00190064800F0E4F87E
:103B600003464FF0FF31184600F068FC00BF03B079
:103B70005DF804FBB424001000B583B00190054843
:103B800000F0D2F80346184600F068FC00BF03B00E
:103B90005DF804FBB424001000B583B001900091DF
:103BA00002F006FC019B0099184601F0BBF902F0F7
:103BB00029FC019B184603B05DF804FB10B582B0E8
:103BC00001900F4A019B1A60019B0C33002B0CD013
:103BD000019B0C3303F12004019B0C339C4204D065
:103BE000103C2046FFF70CFBF6E70023002B02D029
:103BF000019801F031FB019B184602B010BD00BFD7
:103C00004026010000B583B001900198FFF7D6FF70
:103C1000019801F021FB019B184603B05DF804FBFD
:103C200000B585B001904FF0FF310B4800F006FC65
:103C300000230393039B092B07DC0399074800F03B
:103C400067F8039B01330393F4E7034800F006FC95
:103C500000BF05B05DF804FBD82100101C1C01005A
:103C600000B583B06B460A491846FFF719FF6B464B
:103C70001846FFF72FFF03461A46064B1A806B467D
:103C80001846FFF745FF00BF03B05DF804FB00BF17
:103C90003FC00920BC21001000B583B003468DF859
:103CA00007309DF807300A2B0CD89DF807305822B2
:103CB00002FB03F3054A13444FF0FF31184600F0AE
:103CC0001FFA00E000BF03B05DF804FB5C1B0010AE
:103CD0000FB408B54FF0FF31074800F0AFFB029971
:103CE000064802F03FFA044800F0B8FB00BFBDE808
:103CF000084004B0704700BFC021001054200010DD
:103D000008B50248FFF7E4FF00BF08BD241C01000E
:103D10000FB408B50298FFF7DBFFFFF7F1FF00BF14
:103D2000BDE8084004B0704700B583B00190019829
:103D300000F006F80346184603B05DF804FB00BF28
:103D400010B582B00190019B1B68002B18D1FFF7C2
:103D500091FE019B1B68002B10D1019B0433194677
:103D60001820FFF7CDF90446002C04D0204600F0BF
:103D70003FFB224600E02246019B1A60FFF786FEC9
:103D8000019B1A68019B04339A4204D059220449CA
:103D9000044802F0F3FA019B1B68184602B010BDFC
:103DA000281C01004C1C010000B583B00190114A91
:103DB000019B1A60104A019B1A63104A019B5A63C7
:103DC000019B4833184600F057FB019B30331846DF
:103DD00002F0B6F9019B1846FFF7F0FE0023002B16
:103DE00002D0019801F038FA019B184603B05DF843
:103DF00004FB00BF80250100A0250100DC25010097
:103E0000A0F13000D0E700BFA0F13400CCE700BF44
:103E100000B583B001900198FFF7C6FF019801F04B
:103E20001BFA019B184603B05DF804FBA0F13000BB
:103E3000EEE700BFA0F13400EAE700BF10B584B0A0
:103E400003900291039B012B58D1029B4FF6FF7206
:103E5000934253D14FF4165300930023294A2A4921
:103E60002A4802F097F82A4A2A49284801F0CEF950
:103E700029492A4802F012F8254A2949274801F021
:103E8000C5F92849284802F009F8214A244926485A
:103E900001F0BCF925492648FFF7D4FD25492648FD
:103EA000FFF7D0FD25492648FFF776FE254C264929
:103EB0002046FFF7C7FD183424492046FFF7C2FD0E
:103EC000183423492046FFF7BDFD04F118032149AA
:103ED0001846FFF7B7FD204802F07FF91F4800F0B1
:103EE00087FA0B4A1E491D4801F090F91D4800F061
:103EF0007FFA074A1A491B4801F088F900BF04B04D
:103F000010BD00BF03C0092002C0092024200010FA
:103F1000C8000010A93D000009C00920842000103D
:103F2000415E000008C00920CC20001007C0092015
:103F30001421001006C009202C21001040C00920C7
:103F4000442100104C21001032C0092034C0092047
:103F500035C0092037C00920AC210010C021001055
:103F600079440000D821001008B54FF6FF710120F8
:103F7000FFF764FF08BD00BF84B003900192009377
:103F80000B46ADF80A30039B00225A61009B002BC0
:103F90000CBF01230023DAB2039B83F82C20039B80
:103FA000BDF80A209A83039B019A5A62039B009AE8
:103FB0009A6200BF04B0704700B585B001900091CF
:103FC000019B40334FF0FF31184600F037FA019B58
:103FD0005B69002B06D0019B4033184600F03EFA87
:103FE000802363E0019B334A9A61019B9B6A002B0B
:103FF0001BD1019B5B6A9B08B3F1FE5F01D89B005C
:1040000001E04FF0FF33184601F01AF903461A4653
:10401000019B9A62019B9B6A002B06D1019B403356
:10402000184600F01BFA852340E000230393019B10
:104030005B6A9A08039B9A420AD9019B9A6A039B7E
:104040009B0013441C4A1A60039B01330393EEE761
:10405000019B04330099184600F0F4F8019B1833D3
:1040600001991846FDF778FC0246019B5A61019BB5
:104070005B69002B14D1019B93F82C30002B08D0E6
:10408000019B9B6A002B04D0019B9B6A184601F0A0
:10409000E7F8019B4033184600F0E0F9812305E082
:1040A000019B4033184600F0D9F90023184605B0AB
:1040B0005DF804FBC5410000A52E5AE200B585B0AD
:1040C0000190019B40334FF0FF31184600F0B6F9E4
:1040D000019B5B691846FDF783FC0390019B00225E
:1040E0005A61019B3033184600F066F9019B40335A
:1040F000184600F0B3F9039B184605B05DF804FBC1
:1041000000B583B001900091019B5B69009918464E
:10411000FDF7CCFF0346184603B05DF804FB00BF73
:1041200000B585B0039002910192039B019A029918
:104130001846FDF7D9FF039805B05DF804FB00BFF2
:1041400000B583B00190174A019B1A600198FFF7F0
:10415000B5FF019B93F82C30002B08D0019B9B6A84
:10416000002B04D0019B9B6A184601F079F8019B53
:104170004033184600F080F9019B3033184600F0B8
:1041800029F9019B04331846FFF73AF80023002B66
:1041900002D0019801F060F8019B184603B05DF869
:1041A00004FB00BFFC1C010000B583B00190019826
:1041B000FFF7C6FF019801F04FF8019B184603B0C6
:1041C0005DF804FB00B585B00190019B0393039B50
:1041D0000433184600F014F8039B40334FF0FF31CE
:1041E000184600F02BF9039B00225A61039B3033E1
:1041F000184600F0E1F800BF05B05DF804FB00BF11
:1042000000B583B00190019800F038F803B05DF874
:1042100004FB00BF00B583B001900091009BDB68F8
:10422000002B05D0009BDB685B68009901989847DC
:10423000009BDA68019BDA60019B184603B05DF8C9
:1042400004FB00BF00B583B001900091019A009B70
:104250009A420ED00198FEF7D3FF019B1946102019
:10426000FEF74EFF0346002B03D000991846FFF7D8
:10427000D1FF019B184603B05DF804FB00B583B085
:104280000190019BDB68002B05D140F28F2206498B
:10429000064802F073F8019BDB681B680198984799
:1042A00003B05DF804FB00BFD01C0100EC1C010052
:1042B00000B585B00390029113468DF80730039B3B
:1042C000104A5A61039B1C3318220021184603F040
:1042D00017F9039B03F11C02039B9A61039B02994C
:1042E0001846FFF7AFFF039B1433039A9DF807109E
:1042F0001846FDF78BFD0246039B1A6100BF05B00F
:104300005DF804FB6943000000B583B001900091A3
:10431000019B1B6900991846FDF7B6FD0346184638
:1043200003B05DF804FB00BF00B583B00190019BB2
:104330001B691846FDF7C6FD0346184603B05DF835
:1043400004FB00BF00B583B00190019B1B691846B8
:10435000FDF7D2FD019B1846FEF752FF019B184660
:1043600003B05DF804FB00BF00B583B00190019875
:10437000FFF784FF03B05DF804FB00BF00B583B016
:1043800001900091019B083308220021184603F098
:10439000B7F8019B03F10802019B5A60019B0433AB
:1043A00000991846FEF76CF80246019B1A60019BC3
:1043B000184603B05DF804FB00B583B00190019B83
:1043C0001B681846FEF78EF80346184603B05DF8E2
:1043D00004FB00BF00B583B00190019B1B68184629
:1043E000FEF79CF8019B184603B05DF804FB00BF84
:1043F00000B583B00190019B0833102200211846BC
:1044000003F07EF8019B03F10802019B5A60019BB7
:1044100004331846FDF724FF0246019B1A60019BF6
:104420001B68002B02D1044802F00AF8019B1846D1
:1044300003B05DF804FB00BF041D010000B583B0AC
:1044400001900091019B1B6800991846FDF734FF0D
:104450000346184603B05DF804FB00BF00B583B007
:104460000190019B1B681846FDF744FF0346184660
:1044700003B05DF804FB00BF00B583B00190019B61
:104480001B681846FDF750FF019B184603B05DF806
:1044900004FB00BF82B0019000BF02B0704700BFB4
:1044A00082B0019000BF02B0704700BF00B595B068
:1044B000119010910F920E93119B0021184601F05C
:1044C0001DFE3F4A119B1A603E4A119B5A60119B88
:1044D000183310991846FFF7B5FA119B30330F992E
:1044E0001846FFF7AFFA119B03F148004FF0FF3376
:1044F0000C934FF0FF330B934FF0FF330A934FF0C1
:10450000FF3309934FF0FF3308934FF0FF330793C6
:104510004FF0FF3306934FF0FF3305934FF0FF3317
:1045200004934FF0FF3303934FF0FF3302934FF0A8
:10453000FF330193189B0093179B169A0E9901F075
:10454000B9FB119B9DF8642083F8A820119B3033A0
:1045500001211846FEF782FF119B183300211846EF
:10456000FEF77CFF184801F097FF00231393139B7D
:10457000022B0ADC0321119800F0D8F8134801F04F
:104580008BFF139B01331393F1E70221119800F085
:10459000CDF80F4801F080FF2821119800F004F9B0
:1045A0000C21119800F000F90621119800F0FCF898
:1045B000119800F027F8119B184615B05DF804FB20
:1045C000341D0100701D01008FC2753C45F5D63ABF
:1045D000ACC5273800B587B00390029101920093D3
:1045E000019A0299039800F003F905900599039840
:1045F00000F0DAF80099039800F0E8F800BF07B07F
:104600005DF804FB00B583B001900121019800F032
:10461000CBF8064801F040FF00220021019800F08D
:1046200007F800BF03B05DF804FB00BF45F5D63ABC
:1046300084B0039002910192039B029AC3F8AC20CC
:10464000039B019AC3F8B02000BF04B0704700BFBD
:1046500010B582B001900091009B0A2B1DD1019BE7
:104660000022C3F8AC20019BD3F8B0305A1C019B48
:10467000C3F8B020019BD3F8B040019800F0FEF8D9
:1046800003469C42ACBF01230023DBB2002B40D089
:10469000019B0022C3F8B0203BE0019BD3F8AC1093
:1046A000019BD3F8B020009B0198FFF793FF019B7B
:1046B000D3F8AC305A1C019BC3F8AC20019BD3F853
:1046C000AC40019800F0CCF803469C42ACBF0123FB
:1046D0000023DBB2002B1CD0019B0022C3F8AC20CE
:1046E000019BD3F8B0305A1C019BC3F8B020019B4A
:1046F000D3F8B040019800F0C1F803469C42ACBF2B
:1047000001230023DBB2002B03D0019B0022C3F85E
:10471000B020009B184602B010BD00BF82B00190CF
:104720004FF0FF33184602B0704700BF00B583B0AA
:1047300001900091019B03F14802009B1B11194657
:10474000104601F02FFB174801F0A6FE019B303305
:1047500000211846FEF782FE124801F09DFE019BE3
:10476000303301211846FEF779FE019B483300994A
:10477000184601F017FB0B4801F08EFE019B303309
:1047800000211846FEF76AFE064801F085FE019BEF
:10479000303301211846FEF761FE00BF03B05DF81B
:1047A00004FB00BFACC5273800B583B00190009171
:1047B000019B183300211846FEF750FE009901981E
:1047C000FFF7B4FF00BF03B05DF804FB00B583B092
:1047D00001900091019B183301211846FEF73EFE1F
:1047E00000990198FFF7A2FF00BF03B05DF804FB3A
:1047F00084B0039002910192039B93F8A830012B9F
:104800001CD0032B24D1019B032B17D801A252F8F3
:1048100023F000BF254800002B480000314800006D
:1048200037480000029B803317E0029BC03314E03E
:10483000029B943311E0029BD4330EE0019A13469D
:104840009B001344DB0003F18002029B134404E04D
:10485000019B02339A01029B1344184604B070472F
:1048600082B00190019B93F8A830023B012B01D844
:10487000142300E01023184602B0704782B0019064
:10488000019B93F8A830032B01D1042300E00223FD
:10489000184602B0704700BF0C4B00781A6801211F
:1048A00022F0FF021A601A6881400A431A601A68EF
:1048B00042F080721A605868044A0028FBDA1368D4
:1048C000C0F30B1023F08073136070470040034067
:1048D00070B50646FFF7E0FF04463046FFF7DCFF01
:1048E00005463046FFF7D8FFAC4282BF23462C4630
:1048F0001D46A84228BF2846A04238BF204670BDAA
:1049000038B505460C460846184901F0F5FCC0B21A
:10491000FF28287004D1164816492F2201F02EFDD9
:10492000154B2046D3F8C420104942F48052C3F8F6
:10493000C420D3F8A82122F04072C3F8A821D3F8EC
:10494000A82142F08072C3F8A8210C4B1A680C4BC6
:1049500013440C4A93FBF2F3013B1B020A4A43F453
:1049600000131360BDE8384001F08CBCEC1D010061
:10497000781D0100901D010000C00F4008010010CB
:104980003F5DC600405DC6000040034008B5FFF72C
:104990009FFFC0F3032343EA001080B208BD00006C
:1049A00010B50C4CA268A4681346B4F1805F0CD219
:1049B000131F094A53F8044F42F8044F074CA24210
:1049C000F8D1044A4FF080539360103043F8201020
:1049D00010BD00BF00ED00E0FCFFFF0FC0000010A5
:1049E000431C10B5044604D106480749152201F0BE
:1049F000C5FC2046002100F0EDF904F01F04012061
:104A0000A04010BDB41E0100581E010038B5054677
:104A10004B1C0C4629600FD00846FFF7E1FF24F03D
:104A20001F0404F11803EB6004F11C032B6104F173
:104A3000140368606B61AC6038BD006800F0F2B9C7
:104A400038B50368044601330D4604D10A480B49C2
:104A50002C2201F093FC15B1012D06D038BDA268BF
:104A60006168136823EA010303E0A26863681168C0
:104A70000B43136038BD00BFAF1E0100581E01007C
:104A80002DE9F843344CD4F80490D4F80880676AD0
:104A9000A66AB9F1000F24D0B9FA89F52F4BC5F1F8
:104AA0001F05EDB253F8250018B12D4B01211B68ED
:104AB00098470123AB40E360C3EB0909E9E7B8FA83
:104AC00088F5264BC5F11F05EDB253F8250018B146
:104AD000234B02211B6898470123AB40E360C3EBE3
:104AE0000808B8F1000FEAD10AE0B7FA87F5C5F176
:104AF0001F05EDB20F2D06D90123AB40E362FF1A6B
:104B0000002FF2D116E0154B05F1200253F82200D8
:104B10000028F1D0124B01211B689847ECE7B6FA48
:104B200086F5C5F11F05EDB20F2D06D90123AB4067
:104B3000E362F61A002EF2D10BE0084B05F12002D9
:104B400053F822000028F1D0054B02211B6898473A
:104B5000ECE7BDE8F88300BF80800240F42100103C
:104B6000F021001070B51E464B1C044623D0134B99
:104B70001A6021F01F03124A036001F01F0321F0A5
:104B80005F0191424360154602D00E4801F058FC87
:104B900023686268AB420C4918BF203241F822609A
:104BA000A26015200949FFF7FBFE094B4FF40012E4
:104BB0001A60002070BD084670BD00BFF0210010D3
:104BC00000C00920C71E0100F4210010814A000026
:104BD00000E100E08268024B002143F82210704798
:104BE000F421001030B503682D4DAB4203D02D4C9D
:104BF000A34208D00FE044680123A3402A4C0129B6
:104C0000E36030D10EE044680123A340264C012923
:104C1000E36236D114E0012920D1AB4202D0A34295
:104C20000ED030BD012340681F491AB10A69834084
:104C3000134303E00A69834022EA03030B6130BD9A
:104C40000123406818491AB10A6B8340134303E0FB
:104C50000A6B834022EA03030B6330BDAB4202D0F0
:104C6000A3421BD10DE0012340680F491AB14A69E4
:104C70008340134303E04A69834022EA03034B6104
:104C800030BD0123406808491AB14A6B8340134381
:104C900003E04A6B834022EA03034B6330BD00BF4D
:104CA00000C0092040C009208080024038B5036858
:104CB000044601330D4604D105480649242201F07B
:104CC0005DFB63680DB1E26800E02269136038BDE6
:104CD000AF1E0100F41E010000B599B001F068FBA1
:104CE00068461B4901F0CBFA06A81A4901F0C7FA39
:104CF0000CA8194901F0C3FA12A8184901F0BFFA2B
:104D000068460121FFF7D2FF06A80021FFF7CEFF7A
:104D10000CA80021FFF7CAFF12A80121FFF7C6FF68
:104D2000962001F0C5FB68460021FFF7BFFF06A8EB
:104D30000121FFF7BBFF0CA80121FFF7B7FF12A865
:104D40000021FFF7B3FF962001F0B2FBD8E700BFC8
:104D500032C0092034C0092035C0092037C00920DD
:104D600030B505460C46A1B001F022FB2946684645
:104D7000224606F069FE051E03DC01F043FB21B06C
:104D800030BD094B1B6823B908480949094A00F09E
:104D9000F3FD00241DF804100448013400F050FD18
:104DA000AC42F7D1E9E700BFC82300102C2F001058
:104DB00002C0092003C009200FB407B504A951F8A7
:104DC000040B0191FFF7CCFF03B05DF804EB04B0D6
:104DD0007047000038B5431C04460D4604D10F4807
:104DE0000F49152201F0CAFA04F16040A0F51C2019
:104DF00003099B0003F1804303F5303300F00F02F9
:104E0000520018680321914020EA010119601868D6
:104E1000954045EA0001196038BD00BFB41E01008D
:104E2000611F010038B5431C05460C4604D11848E3
:104E30001849202201F0A2FA05F16040A0F51C20DB
:104E400043099B0003F1804303F530339D6EC4F3A7
:104E5000800200F01F0102FA01F125EA01059D66BA
:104E60009D6E2943996692B903099B0003F1804323
:104E700003F5303300F00F025200186C032191400B
:104E800020EA01011964196C94400C431C6438BD7C
:104E9000B41E0100611F010070B506460D460846AC
:104EA00000210BF05FFD40B928464FF07E510BF01A
:104EB00077FD18B14FF07E5500E000250A4CA0693F
:104EC0000BF05AFB29460BF0AFFB0BF099FDA369E1
:104ED00031799842336808BF01301860226D012390
:104EE0008B401343236570BD008001400B4B0222B1
:104EF0001B6810B559430A4B5A6099619A6932B1DF
:104F0000006802689C695143B1FBF4F101601A6DBD
:104F100042F001021A6509225A6010BDB422001045
:104F20000080014070B505460E4608461F4901F055
:104F3000E3F9C4B2FF2C04D11D481E493C2201F004
:104F40001DFA1D4B2C7153F8243008342B601B4B79
:104F50002846D3F8C42042F04002C3F8C420D3F856
:104F6000A82122F44052C3F8A821A3F5642300220B
:104F7000DA6002225A61D96C0122A2400A43DA6443
:104F80000F4B104A1B6844F62061B3FBF2F30E4A44
:104F90001360FFF7ABFF28460021FFF77DFF304687
:104FA000BDE87040014901F06DB900BFB81F0100B4
:104FB0006C2001007F200100E800001000C00F40BD
:104FC0000801001000093D00B422001070B504462D
:104FD00003685B6A9847236820461B690021012209
:104FE0009847431C0646236804D120469B6A98478D
:104FF000304670BD1B692046002102229847236875
:105000000546314600221B69204698472368204602
:105010009B6A9847284670BD08B5084B1B685BB96A
:1050200007480849084A00F0A7FC05484FF4165104
:10503000BDE8084000F082BA08BD00BFC8230010D8
:105040002C2F001002C0092003C009207047000067
:1050500002284FF0000309DD0749C21E51F8220063
:1050600041F8223020B103685B6818471846704742
:105070004FF0FF30704700BFC4220010022870B507
:105080000C4615460FDC0E4B1B680BB9FFF7C4FF2F
:105090006619B44205D00B4814F8011B00F0D0FB90
:1050A000F7E7284670BD084B033853F8200020B1BD
:1050B000BDE8704003681B6818474FF0FF3070BDB3
:1050C000C82300102C2F0010C4220010022810B595
:1050D0000C460ADC0B4B1B680BB9FFF79DFF0A4817
:1050E00000F06AFB2070012010BD084B033853F814
:1050F000200020B1BDE8104003689B6818474FF0BE
:10510000FF3010BDC82300102C2F0010C422001047
:10511000022807DD064B033853F8200020B103684E
:10512000DB681847012070474FF0FF30704700BF21
:10513000C4220010022807DD064B033853F8200074
:1051400020B103681B691847002070474FF0FF30FB
:10515000704700BFC4220010022808B504D84FF4DD
:1051600000534B60002008BD01F044FA092303609E
:105170004FF0FF3008BD08B5012001F041FA08B535
:10518000FFF764FFFDF7EAFC08BD704708B5FFF7BD
:10519000FCFFBDE80840FDF7E5BF00000C4A10B574
:1051A00013681844EFF30881884205D3094B0C2299
:1051B0001A604FF0FF3010BD0749096821B1074C54
:1051C000246821448842F1D21060184610BD00BF07
:1051D00004010010342F0010C0220010C42300105E
:1051E000094C08B523680546986801F01DFB236843
:1051F000D86801F019FB01F02EF908B101F02DF982
:105200000DB1FFF769FDFEE738050010012070477A
:10521000002102F06DBA08B5FDF7AEFC08BD08B577
:10522000FDF7B2FC08BD000010B502F039F80446E5
:1052300010B9024801F004F9204610BD9621010082
:1052400010B502F02DF8044610B9024801F0F8F844
:10525000204610BDB321010008B102F029B8704703
:1052600008B102F025B87047034653F8042B10B577
:10527000044602B9036022689A4204D003480449F4
:10528000592201F07BF8206810BD00BFD221010037
:10529000E62101000B4B10B5036004460A48FFF7F6
:1052A000E3FF0023094A52F82310A14204BF002162
:1052B00042F823100133402BF4D10348FFF7D4FF09
:1052C000204610BD48220100B8220010C422001060
:1052D0002DE9F34188463649054602F051FB044664
:1052E00010B9FFF799FE5EE02846324902F048FB0C
:1052F00018B9FFF791FE012455E028462E4902F027
:105300003FFB18B9FFF788FE02244CE02B48FFF75B
:10531000ABFF00242A4E56F82430374633B101340F
:10532000402CF7D12548FFF79FFF3AE04FF0FF33BD
:10533000224846F82430FFF797FF2B783A2B06D106
:10534000284620496A4602F0A9FA009824E06846F7
:10535000294600F02DFD684600F06CFD10B946F8B6
:1053600024001EE0684600F053FD18B1684600F0C6
:1053700058FD11E0684600F044FD054610B946F8B6
:1053800024000EE0036868469E6800F02FFD28F4B4
:10539000803201462846B04747F8240008B103345C
:1053A00001E04FF0FF34204602B0BDE8F08100BFBD
:1053B000D820010038220100DF200100B8220010AF
:1053C000C422001034220100012810B502D00228A6
:1053D00011D010BD0346382251431148421840589D
:1053E000E8B113B992F83620CAB1BDE810400D4AB1
:1053F0001946126810470A48382303FB010358680E
:10540000013005D018699C68046093F836300BB100
:105410000023E0E7506820F001005060DBE710BD9A
:10542000D0230010CC230010034A00219068C0F361
:105430004200FFF7C9BF00BF00C00040034A01217E
:105440009068C0F34200FFF7BFBF00BF00000140FB
:10545000034A02219068C0F34200FFF7B5BF00BFC6
:1054600000800940034A03219068C0F34200FFF71F
:10547000ABBF00BF00C0094070B5284B04689C4218
:1054800011D006DCA3F580439C4212D1244D0523A4
:1054900011E0244B9C4209D003F580439C4208D183
:1054A000214D082307E0214D062304E0204D07236A
:1054B00001E000252B4672B16268012606FA01F16F
:1054C0000A4362605CB220462946FFF769FA194B2D
:1054D000A6401E6070BD01290AD04568164A3826CC
:1054E00006FB052292F8365030325279D54213D15C
:1054F000012202FA01F6B1FA81F16568490925EA4B
:1055000006056560006802FA01F14068014202BFC9
:105510009A40084BC3F8802070BD00BF00000140D6
:105520002954000000800940655400003D540000EB
:105530005154000000E100E0D02300102DE9F04FAD
:105540000268734B8DB09A4206460F4604DD7148DF
:1055500071499B2200F012FF3368704A934223D0B6
:105560000FDCA2F58042934239D16D4BD3F8A821CC
:1055700022F0C002C3F8A821D3F8A82142F04002CB
:105580001DE0684A93421DD002F58042934226D125
:10559000634BD3F8AC2122F44022C3F8AC21D3F8FA
:1055A000AC2142F4802218E05D4BD3F8A82122F40C
:1055B0004072C3F8A821D3F8A82142F48072C3F83E
:1055C000A8210CE0564BD3F8AC2122F44032C3F8AA
:1055D000AC21D3F8AC2142F48032C3F8AC21524B59
:1055E0003D01D3F800B0BBFBF5F305FB13B51FFA83
:1055F00083F9002D53D04FEA4B0305934FF0010A76
:105600004FEA8B03069303935346059A0197CDF80F
:1056100008B00497002501995FFA8AFC4FF0000852
:10562000002A5FFA88F00790ABBF0398B2FBF1F451
:10563000B0FBF1F42409A8BF64090134C4F34F049A
:10564000002C49D0B8F1000F02D0012C98BF0224E1
:1056500008EB0A0060430893029BC000B3FBF0F024
:105660000130C7EB5000CDF82CC00A91099200F030
:10567000B7FF049B099A98420A99089BDDF82CC051
:1056800005DAB8422ED06346A146079D049008F182
:1056900001085FFA88F060453944C1D326E0012350
:1056A000316845EA03150A7BEDB242F080020A73C5
:1056B0003268C9F30721117132685FFA89F982F8FB
:1056C0000090326882F828503268137B03F07F0321
:1056D00013730DB0BDE8F08FB8F1000F14BF0224B2
:1056E0000124B5E76346079DA146D9E7BAF10F0F3C
:1056F000D6D0029906985944029105990AF1010AF7
:105700000A4403990144039101993944019182E7C4
:1057100000C00940042301001D23010000000140D6
:1057200000C00F400080094008010010F8B55E1E5F
:10573000012E07460C46154604D914481449FB228D
:1057400000F01CFE053C032C04D912481049FC2231
:1057500000F014FE042D04D90F480D49FE2200F07C
:105760000DFE013DEDB2032D87BF002211460B4B0C
:10577000012198BF5A5744EA860343EAC1043868B6
:1057800044EA0214E4B20473F8BD00BF76230100BA
:105790001D2301009B230100BE23010052240100B0
:1057A000034B1960416838234B430249CA50704784
:1057B000CC230010D0230010024610B501680B7DE9
:1057C000DB07FCD50B785268D8B2084B382404FBB1
:1057D00002335A6801321FBF5A699B6813604B68D5
:1057E0001CBF43F001034B6010BD00BFD02300106D
:1057F0004268124B382101FB0233D96903F11802C8
:10580000013109D01B6B19689368194214D10368E0
:10581000187DC0F38010704702683033127D12F09B
:10582000200F03D000221A710120704718790F2829
:105830008CBF00200120704700207047D02300104B
:1058400038B504460D462046FFF7D2FF0028FAD0AF
:105850002368EDB21D706268044B382101FB0233EE
:1058600093F83420013283F8342038BDD02300105F
:105870002DE9F84F9A463C4C03680546A34218BFF1
:1058800000248846914647681CB1237C03F03F03FF
:105890002374364E382202FB07634FF0FF31D96183
:1058A00059606B68002102FB0363284683F83510BA
:1058B0000A46FFF7E1FDB8F1000F52D02C494846E7
:1058C00000F00EFD2B498346504600F009FDA8F17B
:1058D0000203012B17D8BAF1FF3F3FD0224B984269
:1058E00009D144B1237C504643F0800323742149FD
:1058F00000F0C8FC32E0382000FB076051461C3045
:1059000000F0A3FC2AE0B8F1010F2AD1B9F1FF3F62
:1059100027D02B6807221A72134B9B450AD14CB132
:10592000237C484643F0400323741149BDE8F84FF7
:1059300000F0A8BC382404FB07604946043000226C
:1059400000F086FC6B68012204FB036686F83520B4
:105950002846BDE8F84F0021FFF78EBDB8F1030FD0
:10596000D3E7BDE8F88F00BF00000140D02300104E
:1059700074220100C42401002DE9F84305460F46B6
:1059800008464D49164600F0B7FC4C4904463046DF
:1059900000F0B2FC0146204600F090FC411C044699
:1059A00004D1474847495C2200F0E8FC464B2C6094
:1059B0009C4217D009D8A3F580439C421FD1434A8B
:1059C000D2F8C43043F0080317E0414B9C420FD09B
:1059D00003F580439C4212D13C4AD2F8C43043F0D4
:1059E00000730AE0394AD2F8C43043F0100304E0EF
:1059F000364AD2F8C43043F08073C2F8C4304FF056
:105A0000010984F808902B684FF00008C3F804805F
:105A100028464FF41651FFF791FD42464B46284663
:105A20000821FFF783FE3846234900F02BFC30465F
:105A3000224900F027FC7A1C03D038464146FFF784
:105A4000F1F9731C03D030460021FFF7EBF91E4B30
:105A50009C420FD005D8A3F580439C420ED1002371
:105A60000BE01B4B9C4207D003F580439C4205D1C1
:105A7000032302E0012300E002236B606A68154BF8
:105A8000382101FB02334FF0FF325A60DA612846B9
:105A900013460021FFF7ECFE0F4B9C4209D10F4B40
:105AA00001221A602946BDE8F8430D48082201F09A
:105AB0004DBCBDE8F88300BF5824010098220100C6
:105AC000422401001D2301000000014000C00F40DE
:105AD00000800940D023001000C00040C8230010FF
